:100000000C947C020C9499020C9499020C94F220AA
:100010000C9499020C9499020C9499020C949902F4
:100020000C9499020C9499020C94A4280C947629AF
:100030000C9486230C9499020C9499020C949902C6
:100040000C9499020C9499020C9499020C949902C4
:100050000C9499020C942B240C9499020C94990200
:100060000C9499020C9499020C9499020C949902A4
:100070000C9499020C9499020C9499020C94990294
:100080000C9499020C9499020C9499020C94990284
:100090000C9499020C9499020C9499020C94990274
:1000A0000C9499020C9499020C9499020F050F0577
:1000B0003B053B059D05A506A506A506BB05310626
:1000C00042064206DE29052AFD2A052AFD2A512A72
:1000D000742AFD2ACB2ADA2A35001E001F002000D0
:1000E000210022002B0014001A0008001500170040
:1000F000290004001600070009000A00E1001D00A5
:100100001B00060019000500E000E200E3002B419F
:100110002C00E100230024002500260027002A00EF
:100120001C0018000C00120013004C000B000D0006
:100130000E000F00330034001100100036003700AD
:100140003800520028002A744C4250004F005100E1
:1001500000000000000000000000000000001D0181
:100160001B01060119011C01000004011601000019
:10017000000000000000000000000000000000007F
:10018000000000000000000000000000000000006F
:1001900000000000000000004B00500152004F0121
:1001A0004A00A8004E00500051004F004D000000D2
:1001B000000000000000AD00AE00A900000000003B
:1001C0004C42AC00AB00AA0000003A003B003C00EF
:1001D0003D003E0000001E001F0020002100220004
:1001E00000001E021F022002210222020000310034
:1001F00038002E002E022D000000000034003402D2
:100200002D0200003F004000410042004300440036
:100210002300240025002600270045002302240295
:10022000250226022702000031022F002F02300291
:10023000300000000000000000000000000000008E
:100240000000000000000000000000000000C55C8D
:1002500000000000000000000000CA5C0000000078
:10026000000000000000000000000000000000008E
:10027000000000000000000000000000000000007E
:10028000000000000000FA5C000000000000000018
:100290000000005C00000000000000000000000002
:1002A000000000000000000000000000000000004E
:1002B000000000000000000016000700000004001D
:1002C000160000000C001200000018000C000000D6
:1002D000783C1E000101010101010101010202023D
:1002E00002020202020203030303030303030404E2
:1002F00004040404040505050505060606060607AC
:100300000707070708080808090909090A0A0A0B64
:100310000B0B0C0C0C0D0D0D0E0E0E0F0F0F101005
:10032000111111121213131414151516161717188C
:100330001819191A1A1B1B1C1D1D1E1E1F202021F7
:100340002222232424252626272829292A2B2C2D3E
:100350002D2E2F30313232333435363738393A3B5F
:100360003C3D3E3F404142434445464748494A4C54
:100370004D4E4F50515354555658595A5B5D5E5F20
:10038000616264656668696B6C6D6F7072737577B6
:10039000787A7B7D7E8082838587888A8C8E8F9118
:1003A000939596989A9C9EA0A2A3A5A7A9ABADAF42
:1003B000B1B3B5B7BABCBEC0C2C4C6C9CBCDCFD12C
:1003C000D4D6D8DBDDDFE2E4E7E9EBEEF0F3F5F8D5
:1003D000FAFDFF0C0373003600300048004B0000AC
:1003E000001603730069006D0070006C0079004B0B
:1003F0000065006500620000000403090409023B77
:1004000000020100A0FA0904000001030101000933
:1004100021110100012240000705810308000109A4
:100420000401000103000000092111010001226DF7
:1004300000070582032000011201000200000008ED
:100440001014010001000102000105010980A10151
:10045000850319012AB700150126B700950175100B
:100460008100C0050C0901A101850419012AA0021F
:10047000150126A002950175108100C0050109062D
:10048000A1018506050719E029E715002501950852
:10049000750181020507190029EF1500250195F066
:1004A000750181020508190129059505750191025B
:1004B000950175039101C005010906A10105071900
:1004C000E029E71500250195087501810295017560
:1004D0000881010507190029FF150026FF00950670
:1004E0007508810005081901290595057501910216
:1004F000950175039101C00011241FBECFEFDAE012
:10050000DEBFCDBF11E0A0E0B1E0E6EFF7E502C04D
:1005100005900D92AA3CB107D9F723E0AAECB1E00F
:1005200001C01D92AD3EB207E1F70E944D150C943B
:10053000F92B0C940000089523E042E061E00E9452
:10054000FF02089581E0089581E008950E94A402C9
:10055000089508950E94A9020895A5E0B0E0E3EB94
:10056000F2E00C94662B49835A833091D101898142
:100570009A81311114C0662359F0222349F00E9458
:100580009108182F682F89819A810E946D0803C0F5
:100590000E947F08182F69817A81812F04C00E94F0
:1005A000910869817A810E94B40F2596E3E00C944A
:1005B000822BFC0186819781009741F4262F408190
:1005C00051816281738184810E94AD020895CF932D
:1005D000DF93EC0161E00E94D902BE010E94B61DCA
:1005E000DF91CF910895CF93DF93EC0160E00E94FB
:1005F000D902BE010E94AA02DF91CF910895E1E0E5
:10060000F0E0DF0102C0AA0FBB1F6A95E2F7BD014F
:10061000DF0102C0AA0FBB1F4A95E2F7AD01462BCE
:10062000572B02C0EE0FFF1F2A95E2F79A012823ED
:1006300039234217530719F48E2B9F2B0895E09509
:10064000F0958E239F2308950E94561108950E94CD
:100650005011089508950E942B070E942A032FEF3E
:1006600084E39CE0215080409040E1F700C000000E
:1006700008950E942B030E94512408950E942B0389
:100680000E94622408950F931F93CF93DF938C01F0
:1006900061E00E94D902EC01B8010E94A602882301
:1006A00009F447C0B801CE010E940520882309F44F
:1006B00040C0B801CE010E94741A8823D1F1B8015C
:1006C000CE010E946B1F8823A1F1B801CE010E94C8
:1006D000A519882371F1F8018281882331F1CB3586
:1006E0008DE5D807E9F050F4C115FCE5DF0779F096
:1006F000CF3DDC45D1F40E94DC0D0CC0CD35EDE5DD
:10070000DE0759F080F0C83ADD4521F00EC00E94A6
:1007100039030FC00E943E030CC00E94170D05C094
:100720000E94210D02C00E94250DC8010E94A20254
:1007300001C080E0DF91CF911F910F9108950E9439
:100740005F230E94C0030E949A1808950E94C40368
:100750000E9450180E946823089508950E94AD03D6
:10076000089581E008950E94B10308950895CF93FC
:10077000C82F0E94AE038C2F0E94B303CF9108951F
:1007800080E00E94B70308950E941D220E94B703D3
:100790000895CF930E941D22C82F8091CC01C817C5
:1007A00079F0C093CC010E94F4236093CD01709343
:1007B000CE018093CF019093D0018C2F0E94B7037C
:1007C000CF910895ADE0B0E0E8EEF3E00C94672B34
:1007D00049875A876B877C878D8761110E945F0CE0
:1007E0009E012F5F3F4F88E0F90111928A95E9F74A
:1007F00085E0FE013996D90101900D928A95E1F7C5
:1008000089819A814C815D81452B31F09F3F31F484
:1008100091E08F3F19F403C091E001C090E090FF98
:100820000BC029813A814B815C816D817E818F81F2
:1008300098850E94820B05C0C9010E94E7028111C0
:10084000F0CF2D96E2E00C94832BFC018081918106
:100850000E94C3080895CF93882309F447C0C82F86
:100860008CEF8C0F813AD0F46C2F80911E01909107
:100870001F010E948D22882349F06C2F80911E0158
:1008800090911F010E941B230E94830C6C2F80916A
:100890001E0190911F010E940D230CC080E28C0F5D
:1008A000883058F4C77081E001C0880FCA95EAF714
:1008B0000E94420C0E94830C19C0EBE5EC0FE33060
:1008C00040F4F0E0ED57FE4F808190E00E944B2213
:1008D0000DC0C85AC73150F4EC2FF0E0EE0FFF1FE7
:1008E000EB5AFE4F808191810E946122CF91089541
:1008F000882359F1682F8CEF860F813A38F4809164
:100900001E0190911F010E941B230CC080E2860FE4
:10091000883058F4677081E001C0880F6A95EAF763
:100920000E94480C0E94830C08958BE5860F83304B
:1009300028F480E090E00E944B220895685A6731C5
:1009400020F480E090E00E94612208951F93CF93ED
:10095000DF93182FEB010E942B04209741F08FE9C1
:100960009FE00197F1F700C000002197F6CF812F9B
:100970000E947804DF91CF911F910895893319F077
:1009800060E070E002C060E570E00E94A604089597
:10099000882321F00E94420C0E94830C0895882332
:1009A00021F00E94480C0E94830C0895A0E0B0E062
:1009B000ECEDF4E00C94612B7C01162FC72FFC01A9
:1009C000D281058102950F700E94380C8823B9F0FE
:1009D000DD23A9F08C2F807F803421F080E2810F0D
:1009E000883068F080917E0382FF09C082E00E9417
:1009F000E50C0E94380C91E0D82ED92601C0D12CEC
:100A0000CC2EC2948FE0C8228C2D90E08C309105C2
:100A100008F09BC1FC01EA5AFF4F0C94512B8C2F1C
:100A2000807FCF70882311F0C295C07FDD2399F0BD
:100A3000CC2309F476C180E2810F883010F01111C7
:100A400004C08C2F0E94420C03C08C2F0E94520CB9
:100A50000E94830C66C1812F0E947804CC2309F484
:100A600074C180E2810F883038F1112329F18C2F75
:100A70000E94580C24C08C2F807FCF70803211F0E0
:100A8000C295C07F112319F01130A1F140C08091AF
:100A90007E0382FD17C0DD2349F0CC2329F08C2F83
:100AA0000E94420C0E94830C80E03CC180E00E94C6
:100AB0007804CC2309F449C18C2F0E94480C0E9471
:100AC000830C43C1DD2371F0002341F0013031F488
:100AD0000E94620C8C2B0E946C0C37C10E94620C2D
:100AE0008C2B0EC0002319F0013009F42EC10E9496
:100AF000790C1FC0DD2339F0063008F026C18C2F99
:100B00000E94C80422C1053008F01FC112C0DD23B5
:100B100019F00023A1F305C1002359F0193309F09E
:100B200011C1FFEF27EE83E0F15020408040E1F754
:100B300007C18C2F0E94CF0408C18C2F8695869503
:100B4000837019F0813061F000C1DD2321F0812F25
:100B50009C2F937002C080E090E00E944B22FDC069
:100B6000DD2321F0812F9C2F937002C080E090E064
:100B70000E946122F2C08C2F8370B1F5D111E9C0BF
:100B8000412F429546954770440F440F812F8F7037
:100B900090E09C01042E02C0220F331F0A94E2F75A
:100BA00014FF0AC08FE090E002C0880F991F4A9599
:100BB000E2F78095909502C080E090E0C695C695DA
:100BC000C370822B932BC23049F058F4C13019F016
:100BD0000E949E07BEC00E949507BBC00E94A70747
:100BE000B8C00E949207B5C0DD2319F08C2F817028
:100BF00001C08695882309F4ACC0412F42954695E3
:100C00004770440F440F812F8F7090E09C01042E99
:100C100002C0220F331F0A94E2F714FF0AC08FE0CC
:100C200090E002C0880F991F4A95E2F78095909551
:100C300002C080E090E0C695C695C370822B932BCE
:100C4000C23049F058F4C13019F00E94080881C040
:100C50000E94FF077EC00E9411087BC00E94B3075C
:100C600078C0CF70DD2339F08C2F0E94CD07812F03
:100C70000E94C8046EC0812F0E94CF048C2F0E9456
:100C8000DD0767C0123F21F128F4103F41F0113F0A
:100C9000C1F043C0133F19F1143F79F03EC0DD238A
:100CA00041F0053008F051C08C2F8F710E94EF0782
:100CB0004CC0063008F049C0F7CF80917E0382FD1A
:100CC00018C0DD2339F08C2F8F710E94CD073DC0F5
:100CD000DD23C9F38C2F8F710E94DD0736C0DD2321
:100CE00029F08C2F8F710E94C1072FC00E94BC0772
:100CF0002CC0DD2349F0CF718C2F0E94CD0763E01B
:100D00008C2F0E94C70C21C081E00E94E50C0230AC
:100D1000E0F082E00E94E50C18C0DD2331F00023F2
:100D200091F2812F0E942B0410C0002399F21933F5
:100D300049F49FEFE7EEF3E09150E040F040E1F737
:100D400000C00000812F0E94780488EF8C0D843051
:100D500020F40E941D220E94B703DD2089F00E942A
:100D6000340C80FD0DC0F70112820E942E0C0E94EF
:100D7000CD07C7010E94E4060E942E0C0E94DD07E9
:100D8000CDB7DEB7E8E00C947D2B0F931F93CF9384
:100D9000DF93EC018E819F81009719F00E94BC0EB9
:100DA00005C0688179818A810E94CE088C010E94E9
:100DB0001A080E948107B801CE010E94D604DF9173
:100DC000CF911F910F910895CF93DF93EC019881FC
:100DD00089812B813C81232B31F08F3F31F481E0DD
:100DE0009F3F19F403C081E001C080E080FD1AC07C
:100DF000CE010E94430381110FC00E94380C88234A
:100E000089F08A81882371F080917E0382FF0AC075
:100E100082E00E94E50C06C0CE010E94C506CE010C
:100E20000E94F302DF91CF91089580E090E00E944C
:100E30004B2280E090E00E9461220E945F0C0E94A1
:100E4000830C089580911E0190911F010E94292317
:100E50000E94150708950E944F0C0E9422070895D2
:100E600092959F70963079F010F4925001C09A508C
:100E7000923068F4803F69F018F4883E40F409C06D
:100E8000843F29F406C0883E20F0813F11F080E0C5
:100E9000089581E00895FC0190818181238134814E
:100EA000232B31F08F3F31F481E09F3F19F403C0D1
:100EB00081E001C080E080FD0EC0868197810097AF
:100EC00019F00E94BC0E04C0808191810E94C30869
:100ED0000E943007089580E00895A5E0B0E0E3E7C0
:100EE000F7E00C94672B2596E2E00C94832BA8E0A6
:100EF000B0E0EDE7F7E00C94672B2896E2E00C9465
:100F0000832B089508950E94820708950E94830705
:100F100008950E9486079093F5018093F4010E9442
:100F2000150708950E94890708952091F4013091D2
:100F3000F501822B932B0E94890708952091F401DB
:100F40003091F501822393230E948907089520910F
:100F5000F4013091F501822793270E9489070895B3
:100F60000E949C0208950E94B0079093F301809321
:100F7000F2010E941507089580E090E00E94B307F7
:100F8000089521E030E0A90102C0440F551F8A9561
:100F9000E2F7CA010E94B307089521E030E002C0E1
:100FA000220F331F8A95E2F78091F2019091F301AD
:100FB000822B932B0E94B307089521E030E002C0FA
:100FC000220F331F8A95E2F7209530958091F20128
:100FD0009091F301822393230E94B307089521E0A7
:100FE00030E002C0220F331F8A95E2F78091F201B0
:100FF0009091F301822793270E94B30708952091CF
:10100000F2013091F301822B932B0E94B3070895D4
:101010002091F2013091F301822393230E94B307C0
:1010200008952091F2013091F301822793270E94C5
:10103000B30708950895962F9770A1E001C0AA0FF5
:101040009A95EAF793E0769567959A95E1F7660F9A
:10105000771F660F771FFA01E60FF71F40E050E099
:10106000682F70E090819B01042E02C03695279571
:101070000A94E2F72170219529272A232927219311
:101080004F5F5F4F4430510569F70895FB01782F9A
:10109000777023E0969587952A95E1F7880F991F39
:1010A000880F991FE80FF91F40E050E080E0219180
:1010B00030E0072E02C0369527950A94E2F721709A
:1010C0003327042E01C0220F0A94EAF7822B4F5FC8
:1010D0005F4F4430510559F70895282F9A3070F426
:1010E000863060F4862F622F70E026E0929F600DBC
:1010F000711D112442ED51E00E941B0808959A30A1
:1011000070F4863060F4292F90E062ED71E036E0F3
:10111000239F800D911D11240E944608089580E0B0
:101120000895A0E0B0E0E7E9F8E00C94602B7C01C2
:101130000091F2011091F3018091F4019091F50179
:10114000082B192BCFE0D0E0CC24C394D12CC601BE
:101150000C2E02C0880F991F0A94E2F78023912376
:10116000892B21F4219798F7B12C07C0BC2EB70129
:101170008C2F0E94CD0F0197A9F38B2DCDB7DEB731
:10118000E9E00C947C2BCF93DF93EC010E94910853
:10119000BE010E94CD0FDF91CF9108951F93CF9391
:1011A000DF93EB019091D101992321F0CB010E94B3
:1011B000C30813C0882349F0CB010E949108182F5F
:1011C000682FCE010E946D0804C0CB010E947F08E9
:1011D000182FBE01812F0E94CD0FDF91CF911F915B
:1011E0000895CF93DF93C091F6018091F701C8175E
:1011F000B1F0D0E0FE0183E0EE0FFF1F8A95E1F72A
:10120000E850FE4F20813181428153816481758194
:10121000868197810E9477072196C770E6CFDF917C
:10122000CF910895209138023091390240913A02CD
:1012300050913B0260913C0270913D0280913E02D0
:1012400090913F020E94770708952091F6019091B6
:10125000F7012917B1F030E0F90153E0EE0FFF1F5D
:101260005A95E1F7E850FE4F5181561306C0508160
:10127000581303C05281541306C02F5F3F4F27708D
:10128000E8CF80E0089581E008951F93CF93DF9326
:1012900080913D0282958F7009F05AC080913A0288
:1012A000882309F455C08091F6011091F7016091EF
:1012B000380270913902C0913B02D0913C0291E01A
:1012C0006F3F09F090E0292F811709F441C0209762
:1012D00021F07F3F21F030E003C031E001C0322F28
:1012E00090E030FD32C0FC0133E0EE0FFF1F3A9575
:1012F000E1F7DF01A850BE4F11963C9111973713CB
:1013000024C03C91361321C012963C9112973111A2
:101310001CC013964D915C9114974C1B5D0B4F3A7A
:10132000510598F480913D028F70806180933D0259
:10133000E350FE4F80818F708061808388E392E06C
:101340000E94E4060E94F10803C001968770BCCF9A
:10135000DF91CF911F910895A5E1B0E0E2EBF9E0B4
:101360000C945D2B8C0185E0F801DE015196019013
:101370000D928A95E1F7D8011296EC90909138027F
:101380002091390240913B0250913C024115510598
:1013900031F02F3F31F481E09F3F19F403C081E029
:1013A00001C080E080FD8FC1F801C080D1808380C2
:1013B000948088E3A82E82E0B82EF0903A02B4011F
:1013C000641B750BFF2009F445C180913D02382F45
:1013D000307F6F3A710508F0F0C0311194C0D2121D
:1013E0001DC0C9121BC040913E0250913F02268190
:1013F00037814217530791F4FE2CE1100FC08F7014
:10140000806180933D020E941209C5010E94E4069A
:1014100080913D02D80115968C936FC1811491047F
:1014200039F0BFEFDB1206C081E0CB1203C003C06E
:1014300081E001C080E080FD03C081E08E2502C014
:1014400080E090E080FF10C04E2D6D2D8C2D0E940D
:101450002509882349F088E392E00E94E406E8E346
:10146000F2E088E0DF01B9C08114910439F0BFEFE8
:10147000DB1206C081E0CB1203C003C081E001C0D3
:1014800080E080FD03C081E08E2502C080E090E016
:10149000E82FE170BE2E80FF2CC04E2D6D2D8C2DBF
:1014A0000E942509F82E811124C0C98ADA8A898907
:1014B0009A890E94C308292F22952F70223018F094
:1014C000243090F405C09F7059F0811109C015C1F6
:1014D0009F7031F0D80115969C91907F09F40DC151
:1014E000805E883008F409C1C8010E94E406FB2C24
:1014F00004C1FE2CEE2009F400C180913D02816000
:1015000080933D026FC0D2121BC0C91219C0409116
:101510003E0250913F02F80126813781421753075E
:1015200079F4E1100DC08583C8010E94E40688E0CB
:10153000F801A8E3B2E001900D928A95E1F7DBC0D3
:10154000C8010E944B07882391F1EE2081F1209180
:101550003D02822F82958F7090E00297A4F08091D7
:101560003802909139029A8789871B869D868C86DE
:101570002E8780913E0290913F02988B8F87CE01FB
:1015800009960E94E40688E0F801A8E3B2E0019021
:101590000D928A95E1F70E9445090E9412090AC03E
:1015A000D21611F1C8010E944B07811135C0C80144
:1015B0000E94E406FF24F394A0C03111F1CF782DEE
:1015C0009D8A8C8AA6016E2D8D890E946D0788E305
:1015D00092E00E94E40688E0D5011D928A95E9F721
:1015E0000E941209F12C89C0C912DCCF40913E0241
:1015F00050913F02F801268137814217530791F637
:10160000E110D0CF8583C8010E94E40688E0D501AF
:101610001D928A95E9F771C0EE2049F220913D02B2
:10162000822F82958F7090E002970CF4ACCF80915E
:101630003802909139029A8389831B829D828C8221
:101640002E8380913E0290913F0298878F83CE0136
:10165000019697CF6F3A710540F5FE2CEE2009F404
:10166000A6CFD21214C0C91212C020913E023091EE
:101670003F02F801868197812817390741F488E0F5
:10168000A8E3B2E001900D928A95E1F736C0C80157
:101690000E944B07811177CF80913D02816080933A
:1016A0003D02C8010E94E40628C0782D9D8A8C8ADC
:1016B000A6016E2D8D890E946D0788E0D5011D92CF
:1016C0008A95E9F718C0EE2009F471CFC8010E948D
:1016D0004B07F82E882309F46ACF88E0F801A8E3C5
:1016E000B2E001900D928A95E1F788E392E00E94C2
:1016F00025040E9445090E9412098F2D6596ECE091
:101700000C94792BA0E1B0E0E8E8FBE00C94672BA7
:1017100029873A874B875C876D877E878F87988B71
:10172000CE0109960E94AC098823E1F099858A854B
:101730002C853D85232B31F08F3F31F481E09F3F95
:1017400019F403C081E001C080E080FD6FC02985ED
:101750003A854B855C856D857E858F8598890E944D
:10176000770764C088E0FE013996DE01119601908A
:101770000D928A95E1F779856A854C855D854115DD
:10178000510531F06F3F31F481E07F3F19F403C020
:1017900081E001C080E080FD49C0A091F701B0E088
:1017A000CD010196877099272091F60130E08217CC
:1017B000930709F442C079836A835D834C8393E085
:1017C000AA0FBB1F9A95E1F7A850BE4F98E0FE0103
:1017D000319601900D929A95E1F78093F7010E945E
:1017E000F10824C028E0829FC001112488509E4F38
:1017F0000E94AC09882371F1E091F60188E0E89F2E
:10180000F0011124E850FE4F208131814281538143
:1018100064817581868197810E9477078091F601A6
:1018200090E00196877099278093F6018091F601E8
:101830009091F7018913D6CF0DC00E942B0710920B
:10184000F7011092F601E8E3F2E088E0DF011D9273
:101850008A95E9F76096E2E00C94832B8091600210
:101860008595859585950895809160028770089586
:1018700090916002977081E009F480E00895809172
:101880008302089590918302892B809383020895A7
:10189000809590918302892380938302089510920A
:1018A0008302089590918202892B80938202089589
:1018B00080959091820289238093820208951092EC
:1018C0008202089580916102089508950E94650C36
:1018D00008950E94660C089590917E0392FF08C0BF
:1018E00090916102981721F0809361020E94690C27
:1018F000089580916102882329F01092610280E0AE
:101900000E94690C0895CF93DF93E0911E01F0913E
:101910001F01809183028083E0911E01F0911F01DD
:10192000908180918202892B80838091610288233B
:1019300081F0E0911E01F0911F019081892B80833D
:1019400080911E0190911F010E94772281110E94B7
:10195000790CC0911E01D0911F0140E250E060E47B
:1019600072E0CE010E949B2B892B59F080E2FE0190
:10197000A0E4B2E001900D928A95E1F7CE010E94B9
:101980003122DF91CF9108950E94650C08959091C6
:101990007E0392FF11C098E0899F90011124262BAD
:1019A000209360020E94CD07809160028595859505
:1019B00085950E94C40C08950E94CD070895109249
:1019C000600280E00E94C40C08952091600280951E
:1019D000822380936002982F977099F430E0482F0B
:1019E000082E000C550B2417350759F090917E03F3
:1019F00092FF07C08595859585950E94DD070E9419
:101A0000DF0C089590917E0392FB222720F928177E
:101A100069F080FB92F990937E0380917D03909111
:101A20007E030E94560D82E00E94E50C089580918D
:101A30007E0382FB882780F991E089270E94020DAE
:101A4000089581E00E94020D089580E00E94020D39
:101A500008956FEF7FEF80E090E00E94E32B089500
:101A600080E090E00E94BF2B21E0883E9E4F09F06D
:101A700020E0822F089582E090E00E94B12B08952B
:101A800083E090E00E94B12B0895CF9384E090E032
:101A90000E94B12BC82F82E290E00E94B12B2C2F24
:101AA00030E0A901582BCA01CF910895CF93C92FD7
:101AB000682F84E090E00E94C52B6C2F82E290E0BA
:101AC0000E94C52BCF910895AB01BC018FE090E03F
:101AD0000E94D72B0895AB01BC0183E190E00E94E6
:101AE000D72B089560E070E0CB010E946B0D089544
:101AF00060E070E0CB010E94640D0E94720D0895B9
:101B000068EE7EEF80E090E00E94E32B60E082E0F0
:101B100090E00E94C52B60E083E090E00E94C52B1E
:101B20001092F5011092F40160E084E090E00E94D0
:101B3000C52B64E082E290E00E94C52B60E085E066
:101B400090E00E94C52B60E086E090E00E94C52BEB
:101B50006FEF87E090E00E94C52B40E050E0BA01B3
:101B600088E090E00E94D72B60E08DE090E00E943A
:101B7000C52B40E050E0BA0188E190E00E94D72BED
:101B800060E087E190E00E94C52B40E050E0BA01A0
:101B90008CE190E00E94D72B60E070E080E290E062
:101BA0000E94E32B40E050E0BA0188E190E00E94FF
:101BB000D72B0E94780D08950E94800D0895682FFC
:101BC0008EE090E00E94C52B08950E94F42360935C
:101BD000940270939502809396029093970260937B
:101BE00090027093910280939202909393020895D1
:101BF0000E94E912089508950E94FB0D08950E9425
:101C0000FB0D08950E94FF0D08950E94FB0D08959D
:101C10000E94050E08950E94FB0D08958CEF90E13F
:101C20000E9413220E940B0E0E94080E08950E942B
:101C3000FC0D0E94FB0D08950E941E110E94B60328
:101C400008950E94DF230E94B1100E9404130E9495
:101C50004C120E941C0E0E945C1A0E94E0180E9406
:101C600018130E94020E08950E94E91281110E9429
:101C70006F1D0895AAE0B0E0E0E4FEE00C945F2B55
:101C80000E94711286E8E82E82E0F82E670100E0DB
:101C9000F60111916F01802F0E943C1181270F5F87
:101CA0000A3019F08823A1F322C0811120C00E94BC
:101CB000E8238C018091840290918502081719070E
:101CC00009F450C08FEF89838A831B820E94E82326
:101CD0008160782F9D838C8349815A816B818D81AE
:101CE0000E94E20310938502009384023BC080911E
:101CF000980281FD0E9442110E94F80DA82E10E06A
:101D0000812F0E943C11B82EF701C080C82611F126
:101D100000E0DD24D3948C2D8D21B1F0AA20A1F018
:101D20000E831F8391E08B2D8D2109F490E098871D
:101D30000E94E8238160782F9A8789874E815F818E
:101D400068858A850E94E2030F5FDD0C063019F773
:101D5000F701B0821F5FFFEFEF1AFF0A1A3081F61A
:101D60000E94E50D0E94340E0E9418190E94C903BA
:101D70002A96EAE00C947B2BCF93DF930E94D20F3C
:101D8000EC01811522E59207F0F5811531E5930705
:101D900008F0ABC0883E910528F5803E910508F01B
:101DA000DFC0883A910570F4853A910508F07AC051
:101DB0008130910509F473C008F4CFC0049708F08E
:101DC000CFC0CBC08F3B910508F0C7C0C85AD0E048
:101DD000CC0FDD1FCA57DE4F0990D881C02DCE0130
:101DE0009464BFC0811540E5940708F069C0C1152F
:101DF00080E4D80708F060C0CE019A9581159F4114
:101E000008F4AEC0AAC0811536E5930728F5811500
:101E100045E5940708F086C0C11584E5D80708F0A9
:101E20007BC0AE01437055272C2F26952695C115F2
:101E3000D34508F060C081E090E002C0880F991F90
:101E40004A95E2F740E2249F90011124EC01C22B55
:101E5000D32BCE019C6885C081154AE5940780F498
:101E6000C11589E5D80708F066C0C11528E5D20775
:101E700008F473C0DC2FCC27CE01806F906A71C04C
:101E800090568115904208F068C08D2F8F710E9486
:101E90006E10DD27D0628F719E01382B5CC081E00F
:101EA00090E05FC0C55AD0E0CC54DE4F8881C82F87
:101EB000D0E0CE01906455C0DF70CE01906A51C071
:101EC0008370992721E030E002C0220F331F8A95EA
:101ED000E2F79C2F9695969540E2949FE00111249D
:101EE000C22BD32BCE019D683CC0D82FCC27CE016E
:101EF000816F906A36C081E090E002C0880F991F20
:101F00004A95E2F740E2249F90011124EC01C22B94
:101F1000D32BCE019A6825C0DC2FCC27CE01846F4D
:101F2000906A1FC00E946E108F7190E0D82FCC274E
:101F3000CE01906216C08C2F8F700E946E1094E0BC
:101F4000D695C7959A95E1F7CF70D0E0DC2FCC27D6
:101F5000D0699E01282BC90104C080E090E001C037
:101F6000CE01DF91CF9108957A30A0F4663090F4DD
:101F70009CE3899FF001112486E0789FE00DF11D1C
:101F80001124E60FF11DEE0FFF1FE852FF4F859160
:101F90009491089580E090E008950E94B40F0E940B
:101FA000BC0E08958238910569F1B0F48133910532
:101FB00009F475C048F48932910509F467C08A3282
:101FC000910509F471C008958533910509F459C04C
:101FD00089339105B9F00895833E910589F138F46C
:101FE000803E9105D1F0823E910529F10895863E0B
:101FF0009105C9F1873E9105D9F1843E910509F01B
:102000006CC027C020917D0320FD57C021FD55C025
:1020100020917E0323FD5BC0089580917D0380FDA8
:1020200048C080917E0380FF48C080917D0384FD7D
:1020300046C083EE51C080917D0382FF3CC0F5CF46
:1020400080917D0382FD37C080917E0380FD35C085
:10205000ECCF80917E0381FF36C080917D0384FDAB
:102060002EC087EE39C080917D0383FF2AC0F5CF53
:1020700080917D0383FD25C080917E0381FD23C077
:10208000ECCF80917D0385FD22C01FC080917D0330
:1020900085FD1BC080917E0383FF19C00AC080911B
:1020A0007D0386FD16C017C080917D0386FD13C099
:1020B00010C089E311C082EE0FC080EE0DC080E039
:1020C0000BC086EE09C084EE07C085E305C089E237
:1020D00003C08AE201C081E390E0089590917D03FE
:1020E00092FF0DC0282F2871283019F4877F846053
:1020F00006C0282F2471243011F48B7F886093FF51
:102100000DC0282F2871283119F4877E846106C0FC
:10211000282F2471243111F48B7E886120917E0355
:1021200020FF0DC0382F3871383019F4877F816057
:1021300006C0382F3171313011F48E7F886021FF55
:102140000DC0282F2871283119F4877E816106C0BF
:10215000282F2171213111F48E7E886194FD877EB4
:1021600008951092790310927A0310927B031092D3
:102170007C030895CF92DF92EF92FF926B017C0176
:102180000E94E91281110EC00E94F423C61AD70AD8
:10219000E80AF90AC0927903D0927A03E0927B03AD
:1021A000F0927C03FF90EF90DF90CF9008950F9313
:1021B0001F930E94E912882319F00E94F4230EC095
:1021C0000E94F4230091790310917A0320917B03FC
:1021D00030917C03600F711F821F931F1F910F911D
:1021E00008950E94E912882319F00E94E8230895B7
:1021F0000E94D710CB01089580E008950E94290D18
:1022000008950E9471128FE39CE90197F1F700C0D5
:1022100000000E9471120E940113811102C084E02B
:1022200001C080E00E943C1181FF04C00E94FE10AA
:102230000E94512408950E94011108950E94300DBA
:10224000811102C00E94DC0D0E943B0D8093980218
:102250000E94450D90937E0380937D030E941B1185
:102260000E94400D90E00E9492078091F2019091AF
:10227000F3010E94B0070895E82FF0E0E657FC4F05
:1022800080810895089580EA8A95F1F7089500C045
:1022900008950E944311089508950E944C110895D5
:1022A0000E944D1108950E944C1108950E945311EF
:1022B00008950E944C110895A5E0B0E0E2E6F1E136
:1022C0000C94642B0E94E912609194038823E9F135
:1022D00085E0F82E8E010F5F1F4FF8018F2D1192B0
:1022E0008A95E9F7862F90E0B80186579C4F0E94A7
:1022F0002613882389F080917F0390E045E050E029
:10230000B80186579C4F0E949B2B21E02093990295
:10231000892B61F410E016C0809199028823D1F3D3
:10232000F8011192FA94E9F710929902A0917F03B3
:10233000B0E0A657BC4F85E0F80101900D928A9558
:10234000E1F711E00E9427030DC070E066577C4F53
:1023500080917F0390E086579C4F0E94AF130E94AC
:10236000591110E0812F2596E5E00C94802BF8940C
:10237000E82FE295EF70F0E031A1282F2F7081E077
:1023800090E001C0880F2A95EAF7982F9095932343
:1023900091A392A1892B82A3789408950F931F9300
:1023A000CF93DF93CDEBD1E089918F3F11F00E9465
:1023B000B71181E0C23CD807B9F7C7EBD1E00DEB0C
:1023C00011E089918F3F11F00E94B7110C171D0782
:1023D000C1F7DF91CF911F910F910895A0E0B0E078
:1023E000E4EFF1E10C94612B8C01C62FD0E0CE011B
:1023F00083549E4F7C01FC0190819F3F09F447C0AC
:10240000D62EF894E92FE295EF70F0E081A19F704D
:1024100021E030E001C0220F9A95EAF7822B81A3D8
:1024200082A12095282322A378940E944711E7EBEC
:10243000F1E04DEB51E031E0C12C21912F3F89F0CB
:10244000A22FA295AF70B0E090968C9190E02F7083
:1024500002C0959587952A95E2F780FD02C0832FEB
:1024600001C080E0C82A330F4E175F0731F7F7012C
:1024700080818F3F11F00E94B71161E0C11001C04F
:1024800060E08D2D0E944911C00FD11FC882CDB7C9
:10249000DEB7E8E00C947D2B809120018091200133
:1024A000811102C095E001C090E09093940385E013
:1024B000891B80937F030E94CE118AE0EAE8F3E053
:1024C000DF01982F1D929A95E9F7E0E8F3E0DF012C
:1024D0001D928A95E9F785E00E94AF120E942403BD
:1024E0000895AAE0B0E0E7E7F2E10C94642B8E01D6
:1024F0000F5F1F4F8AE0F80111928A95E9F7F12CDE
:102500006F2DC8010E94EE11F394F5E0FF12F8CF91
:102510004AE050E0B80180E893E00E949B2B21E064
:10252000009709F420E0892B41F08AE0F801A0E847
:10253000B3E001900D928A95E1F76091940370E009
:1025400066577C4F45E080E893E00E94B012182F58
:102550000E945C11812B2A96E5E00C94802B089553
:10256000EF92FF920F931F93CF93DF937C018B0128
:10257000C42F222349F081E080939C020E94E8232B
:1025800090939B0280939A0280919C02811102C0D9
:1025900080E01AC080919A0290919B020E940024D0
:1025A0000597B0F3D0E0AE01B701C8010E949B2BA4
:1025B000892B39F0AE01B701C8010E94A82B81E038
:1025C00001C080E010929C02CDB7DEB7E6E00C942B
:1025D0007F2B80919F0281110DC00E94302B8111B1
:1025E00002C082E001C081E080939F02823011F43A
:1025F0000E942B2B81E090919F02913009F080E0A6
:1026000008950E94E91208950E9401138093200109
:10261000809120016BE0882311F080E001C08BE005
:102620000E94ED150E94E91281110E945E13089527
:102630000E94E912811102C00E946113089581E095
:102640009091A0029A3008F080E008950F931F93B4
:10265000CF93DF93EC018B018091A0028A3038F494
:10266000B801CE010E94AC1381111DC00AC0809137
:102670009D0290919E020E940024843F914080F729
:1026800015C08091A0028F3F19F08F5F8093A00248
:102690008091A0028A3060F00E94E82390939E020D
:1026A00080939D0203C01092A00202C080E001C08E
:1026B00081E0DF91CF911F910F9108950E94AD208D
:1026C00008950E94B0200895A0E0B0E0EAE6F3E1AA
:1026D0000C94622B7901C82F880FDD0B4115510531
:1026E000A9F0FE0193E0EE0FFF1F9A95E1F7EF5D71
:1026F000FE4F818192818F559D4F208130E042179E
:10270000530708F49A01A9010E94A82BCE010E9448
:102710009821D82E8823D1F001151105B9F083E056
:10272000CC0FDD1F8A95E1F7FE01EF5DFE4F43817F
:1027300050E00417150708F4A801CF5DDE4F6C8147
:102740007D816F557D4FC7010E94A82B8D2DCDB780
:10275000DEB7E7E00C947E2B0E94DF1408950E9400
:1027600000150895A4E0B0E0E8EBF3E10C94652BCC
:102770006091C0027091C1028091C2029091C30227
:102780000E940F24643671058105910528F10E948D
:10279000D710DC01CB010296A11DB11D89839A835C
:1027A000AB83BC8300E010E020E030E044E050E088
:1027B000BE016F5F7F4F82E00E946413182F882351
:1027C00061F00E94F4236093C0027093C102809371
:1027D000C2029093C30201C011E0812F2496E4E06D
:1027E0000C94812BA0E0B0E0E8EFF3E10C945F2BB8
:1027F0007C015B016A010E941F13811103C001E08B
:1028000010E002C00AE010E0C1E0D0E0B501C7016D
:10281000F6010995811115C021960C171D0794F03A
:10282000CC9F9001CD9F300D300D112480E090E0C1
:1028300045E34A95F1F70000019682179307C1F727
:10284000E5CF81E0CDB7DEB7EAE00C947B2BA8E0C2
:10285000B0E0EDE2F4E10C94652BCE0101960E940C
:10286000A31718856091C4027091C5028091C602B9
:102870009091C7020E940F2464367105810591056D
:1028800010F41123D9F000E010E020E030E048E03F
:1028900050E0BE016F5F7F4F83E00E946413882386
:1028A00059F00E94F4236093C4027093C502809390
:1028B000C6029093C70202C080E003C00E94A01726
:1028C00081E02896E4E00C94812BA6E0B0E0EBE6F2
:1028D000F4E10C945F2B7B01C090C201D090C30146
:1028E00001E010E09E012A5F3F4F40E050E060E0D1
:1028F00070E080E00E946413182F882309F43EC022
:1029000056018FEFA81AB80A6091BC027091BD02FF
:102910008091BE029091BF020E940F24643671051F
:102920008105910518F105E010E09E012F5F3F4FF2
:1029300040E050E060E070E081E00E946413182FF6
:1029400065E070E0C5010E945D1A91E02E812813B8
:1029500090E0192339F10E94F4236093BC02709334
:10296000BD028093BE029093BF0211C065E070E08B
:10297000C5010E945D1A9E818913D5CF85E0F601BD
:102980003196DE01119601900D928A95E1F711239F
:1029900049F085E0FE013196A7EBB2E001900D927F
:1029A0008A95E1F785E0E7EBF2E0D70101900D921F
:1029B0008A95E1F7812F2696EAE00C947B2B0F9302
:1029C0001F93CF93DF93EC018B0145E654E10E9406
:1029D000F213811102C080E00EC042EB53E1B80156
:1029E000CE010E94F2138823B1F347E254E1B8010B
:1029F000CE010E94F213DF91CF911F910F910895A4
:102A00000F931F93CF93DF93C091C201D091C30165
:102A1000CE01019625E0FB01DC0101900D922A9583
:102A2000E1F765E070E00E945D1A88836E817F8126
:102A3000888599850091B3021091B4022091B50266
:102A40003091B602601771078207930751F06093C7
:102A5000B3027093B4028093B5029093B6020E94C1
:102A6000BA108989882331F060E0CE010A960E946D
:102A7000AB18198ADF91CF911F910F9108950E9491
:102A8000FE250E94210E0E940B2608950E9410260A
:102A90000E943A0E0E942A2608950E947F230E94D7
:102AA000E4250E940E0E0E943F150E9446150E94CA
:102AB000170EFBCFEF92FF920F931F93CF93DF93ED
:102AC0008B01682F11110AC0442329F0E82FF0E090
:102AD000ED52FD4F6491762F862F75C0212F30E087
:102AE000E82FF0E0442321F0ED52FD4FE491F0E0B7
:102AF00046E0049FC0011124CFEFD0E0BE010E9448
:102B00003D2B4BEA4603C001479F900D1124800FD7
:102B1000911D800F911D982F990F890FAE01421BB7
:102B2000530B4E9FD0014F9FB00D5E9FB00D1124EF
:102B30009B2F189FA0011124452F55278E01041BA0
:102B4000150B0E9FA0010F9F500D1E9F500D1124BD
:102B50007E01E81AF108E29E8001E39E100DF29ECC
:102B6000100D1124212F3327C21BD30BCE9F9001B0
:102B7000CF9F300DDE9F300D112462307105A9F01A
:102B800048F46115710569F061307105C9F48B2F46
:102B9000752F0DC06430710581F058F066307105F5
:102BA00079F47E2F8B2F932F0DC0832F7B2F9E2F99
:102BB00009C08E2F7B2F952F05C08E2F732F02C03B
:102BC0007E2F852F692FCDB7DEB7E6E00C947F2BE3
:102BD00041E00E945A1508950895E1E4F1E08083F0
:102BE000618308950E94E8150895CF93DF93762FAF
:102BF000E901682F842F0E94F215798368838A8304
:102C0000DF91CF91089580919503282F269530E08C
:102C10002115310519F48170826005C02530310518
:102C200024F08170886080939503089588E090E097
:102C30000E94B92B0895CF92DF92EF92FF926B0121
:102C40007C010E940316B701A60188E090E00E9473
:102C5000D72BFF90EF90DF90CF900895E5E9F3E058
:102C600083E0808311828FEF828383831482A4EDBB
:102C7000B2E012968C911297836012968C936081C9
:102C80007181828193810E941B1608958091950322
:102C900080FF02C08695089580E008959091990381
:102CA000933018F49F5F90939903882351F06091BB
:102CB00095037091960380919703909198030E94D9
:102CC0001B16089581E00E944E1608959091990375
:102CD000992319F0915090939903882351F06091B2
:102CE00095037091960380919703909198030E94A9
:102CF0001B16089581E00E946616089570E00E94F8
:102D0000311A0895609142018091950380FF0BC0B4
:102D10008091410123E0829FC001112486569C4F7F
:102D20000E947E1608958091430190914401891775
:102D300078F7E82FF0E09F01220F331FE20FF31F17
:102D4000E656FC4F1182108212828F5FF0CF909175
:102D5000950390FF16C09091430120914401921772
:102D600070F4E92FF0E0DF01AA0FBB1FEA0FFB1F91
:102D7000E656FC4F8183608342839F5FF0CF0E94C1
:102D800082160895A3E0B0E0E8ECF6E10C94672B1E
:102D90009091950390FF0AC09E012F5F3F4F0E94C4
:102DA000F5154B8169818A810E94A7162396E2E07E
:102DB0000C94832BCF93DF93EC01E5E9F3E043819F
:102DC00062818C810E94C2168C818F5F8C83DF911F
:102DD000CF910895A3E0B0E0E0EFF6E10C94632B0F
:102DE000182FF62E042FE22E8091950380FF3EC00F
:102DF000E82FE695F0E0EC53FE4F90819093D402DB
:102E00008E7F823061F49E012F5F3F4F812F0E94A1
:102E1000F5154B8169818A810E94A71604C0923002
:102E200011F41091960380919603181308C08091B5
:102E30009703F81204C080919803081729F0809135
:102E4000D60282608093D60210939603F092970385
:102E500000939803EE2051F06091950370919603D2
:102E600080919703909198030E941B162396E6E0A9
:102E70000C947F2BE5E9F3E09181282F4381628157
:102E800088E0890F0E94EA16089581E00E943A17AF
:102E90000895E5E9F3E09181282F4381628188EF6D
:102EA000890F0E94EA16089581E00E94491708954B
:102EB000E5E9F3E0628121E1620F08F46FEF282F6A
:102EC000438181810E94EA16089581E00E9458178B
:102ED0000895E5E9F3E0628121E1621B08F460E016
:102EE000282F438181810E94EA16089581E00E9483
:102EF00069170895E5E9F3E0438121E1420F08F401
:102F00004FEF282F628181810E94EA16089581E0A7
:102F10000E947A170895E5E9F3E0438121E1421B1D
:102F200008F440E0282F628181810E94EA1608950A
:102F300081E00E948B17089520E00E94EA16089510
:102F40001092D602089525E0E5E9F3E0DC01019056
:102F50000D922A95E1F72091D4023091D50240914B
:102F6000D602FC012583368347830895609195033B
:102F7000669570E041E050E086E491E00E948E2B7F
:102F8000892B19F481E08093D5020E94F11090936F
:102F9000CC028093CB028091D60284608093D602CB
:102FA0000895E4EDF2E011828281846082830895C5
:102FB0009091950390FF3AC09170811102C0926088
:102FC00006C0853010F0986002C0880F982B90934F
:102FD00095038091D60281608093D602662351F0DA
:102FE0006091950370919603809197039091980357
:102FF0000E941B1660919503669570E041E050E0D9
:1030000086E491E00E948E2B892B19F00E94D11743
:1030100002C00E94B61781E08093CE0240919803CF
:1030200060919703809196030E949C170895682FE2
:1030300090919503969581E0890F853008F081E0A5
:103040000E94D817089581E00E9417180895682FEC
:103050009091950396958FEF890F09F484E00E9473
:10306000D817089581E00E942718089561E00E9412
:10307000D8170895E5E9F3E0808181608083869523
:103080000E943618089560E00E94D8170895E5E977
:10309000F3E080818160808386950E9443180895C3
:1030A0001092D2028091D10281110E9447180E9491
:1030B000B6170895E5E9F3E080818E7F8083608113
:1030C0007181828193810E941B160E94D117E4EDC9
:1030D000F2E08281816082832FEF80E792E02150CD
:1030E00080409040E1F700C000000E9482160895E1
:1030F0008091950380FF03C00E945A1808950E9492
:103100003A180895E5E9F3E080818E7F80830E947C
:10311000D117E4EDF2E08281816082832FEF80E7B6
:1031200092E0215080409040E1F700C000000E94F2
:10313000821608950E94D1178091D20281110AC08F
:1031400081E08093D2028091950381708093D102B7
:103150000E94821808951F93CF93DF93EC01162FDE
:103160008F8180FF0FC0888180FF0AC08091950306
:10317000816080939503888186950E94D81702C04C
:103180000E9482188F8181FF06C0212F4B816A81A6
:1031900089810E94EA168F8182FF08C08E81882370
:1031A00019F00E94B61702C00E94D1178F8183FFC9
:1031B00003C081E08093CE02DF91CF911F910895EB
:1031C0008091D302811133C00E94300D811104C05F
:1031D0000E94DC0D0E942E160E9416166093950325
:1031E0007093960380939703909398038091D602EF
:1031F00083608093D6026E7F61F40E942E160E9437
:10320000161660939503709396038093970390939B
:1032100098030E9403160E94D1178091950380FFA6
:1032200003C086950E94431881E08093D3020895DD
:10323000EF92FF920F931F93CF93DF938091D5026C
:10324000882309F467C08091D402E0919503E69544
:10325000E81BE093CD02823049F4F0E0E053FD4FEB
:10326000E491CE2FD0E00AED16E104C0C0EDD7E026
:103270000CEE15E18091CE02882361F01092CE020F
:103280000E94F1109093CC028093CB021092D00256
:103290001092CF020E94F110E091CB02F091CC028B
:1032A0009C012E1B3F0B2F3F3F47A0F52091CA02E8
:1032B0002223B1F01092CA022091C8023091C902B3
:1032C000821B930B8F3F9F4758F4205D3A48309301
:1032D000C9022093C8028091D60288608093D602EA
:1032E000E090CF02F090D002CE0FDF1FD093CC023F
:1032F000C093CB028BEC92E0F80109958091CF024C
:103300009091D002892B31F4E114F10419F081E09D
:103310008093CA02CDB7DEB7E6E00C947F2B8823FA
:1033200011F0FA0101C0FB01099508950E944616AB
:10333000823038F00E944616843018F40E94231818
:10334000089582E00E94361808951F93CF93DF936B
:10335000FB011281111180C0EC010E943F0C8272AE
:10336000CB3CFCE5DF0709F46AC000F5C63CECE5A0
:10337000DE0709F44BC048F4C43C9CE5D907D1F101
:10338000F0F5C33CDC4599F130C0C83C9CE5D90759
:1033900009F446C008F43FC0C93CFCE5DF0709F466
:1033A00044C0CA3CDC4509F445C01FC0CF3CECE535
:1033B000DE0709F451C060F4CD3C9CE5D90709F45F
:1033C00043C008F046C04AE756E162E676E11BC01A
:1033D000C73DFCE5DF0730F4C13DDC45E8F50E9460
:1033E00096193AC0CE35DD45B9F111E035C00E94DD
:1033F000781832C042E358E163E278E104C043E266
:1034000058E162E378E10E948F1926C044E557E154
:1034100065E477E1F8CF45E457E164E577E1F3CF80
:1034200046E757E165E677E1EECF45E657E166E727
:1034300077E1E9CF48E957E167E877E1E4CF47E88A
:1034400057E168E977E1DFCF42E656E16AE776E1E6
:10345000DACF81E00E943618812FDF91CF911F9142
:103460000895539A2BB1277F3BB138604FB7F8943A
:10347000FC01CB01880F991F680F791F6E0F7F1F0A
:10348000E617F70789F0819198E03BB9000000C08A
:1034900087FF2BB9880F000000C000C000C02BB907
:1034A00000C09A9591F7ECCF4FBF8FE594E001975C
:1034B000F1F700C0000008950895FC01680F791F1E
:1034C0008FEF91E3E617F70771F02191822728E04B
:1034D00030E087FF03C0880F892701C0880F215083
:1034E0003109B9F7EFCF0895CF93DF93EC01FB01DA
:1034F0008281882309F472C1C430FDE5DF0760F4DE
:10350000CB3F9CE5D907D0F49E0122503C452431A5
:10351000310508F064C112C0C63AEDE5DE0771F06E
:1035200030F4C2369DE5D90709F059C107C09E01A4
:103530002E5A3D452330310508F051C10E94450DFA
:1035400090937E0380937D03C231ECE5DE0709F49E
:1035500005C108F04BC0C9308CE5D80709F4D2C0CA
:1035600000F5C530ECE5DE0709F4B9C078F4C330E6
:103570008CE5D80709F4AAC008F0AEC0C230DC451B
:1035800009F022C180917D038160A3C0C730FCE5B2
:10359000DF0709F4AFC008F0B1C080917D038061FE
:1035A00098C0CD309CE5D90709F4C2C058F4CB309F
:1035B000FCE5DF0709F4B0C008F0B6C080917D03D8
:1035C0008860A6C0CF309CE5D90709F4BFC008F4D5
:1035D000B2C0C031FCE5DF0709F4BCC0C131DC4535
:1035E00009F0F2C080917D038F7B73C0C1159DE50A
:1035F000D90709F4BEC088F5CB3FFCE5DF0709F425
:1036000072C0B8F4C4319CE5D90709F4C1C008F40C
:10361000ABC0C531DC4509F0D7C080917D0382FB8A
:10362000222720F991E0922790FB82F990FB83F901
:1036300050C0CD3F8CE5D80709F481C008F456C0CE
:10364000CE3FECE5DE0709F47DC0CF3FDC4509F055
:10365000BBC080917E0382605DC0C2368DE5D80715
:1036600009F4A6C068F4C230EDE5DE0709F49CC099
:1036700008F484C0C330DD4509F0A6C080E095C0E1
:10368000CE3A9DE5D907F1F058F4C63ADD4509F088
:103690009BC080917D03982F909590FB80F919C075
:1036A000CF3A8DE5D807E1F1C03BDD4509F08CC08C
:1036B00080917E0383FB222720F991E0922790FBE3
:1036C00083F980C080917E0388607CC080917D03F7
:1036D000826080937D0378C080917D0319C08091C2
:1036E0007D038860F6CF80917E0314C080917E03B5
:1036F000826068C080917D038062EBCF80917D0302
:103700008064E7CF0E942B0780917D038068E1CF22
:103710008460DFCF816056C080917D038E7FD9CFDA
:1037200080917E03877F4EC080917D038D7FD1CFB6
:1037300080917D031CC080917D03877FCACF8091DB
:103740007E031AC080917E038D7F3CC080917D03F3
:103750008F7EBFCF80917D038F7DBBCF0E942B07D3
:1037600080917D038F77B5CF80917D03877F8B7F9D
:10377000B0CF80917E038D7F8E7F24C080917E03A9
:10378000982F909591708E7F892B90FB81F91AC0AC
:103790000E942B0780917D0387FB222720F991E06F
:1037A000922790FB87F995CF81E00E94DF0D0CC036
:1037B00080917D0384FB222720F991E0922790FBE2
:1037C00084F987CF80937E0380917D0390917E035F
:1037D0000E94560D0E942B0780E001C081E0DF911E
:1037E000CF9108950F931F93CF93DF93809142035E
:1037F000882309F459C0C091D7021CE0809142038C
:10380000C81708F04DC001E00C0F0093D702D0E0BC
:103810001C9FF0011D9FF00D1124EE51FD4F908172
:10382000818123813481232B31F08F3F31F481E07A
:103830009F3F19F403C081E001C080E080FD2EC0ED
:103840001C9FD0011D9FB00D1124AE51BD4F169687
:103850008D919C911797892B61F418968D919C916D
:1038600019978F3F2FEF920721F061E00E949B0292
:103870000AC02081318142815381648175818681B2
:1038800097810E94820B1C9FF0011D9FF00D112457
:10389000EE51FD4F148213820E945F0CC02FAECFF9
:1038A000109242031092D702DF91CF911F910F9196
:1038B0000895109244031092430320911C0130910B
:1038C0001D01E0E0F1E080E090E08217930741F015
:1038D0004581411102C01482168201963796F5CFB8
:1038E0000895BC014091E0028091E102942F981765
:1038F00029F1292F30E0F901EE0FFF1FE852FD4FAB
:103900000190F081E02DE617F70799F487E0869F94
:10391000F001879FF00D1124E050FF4F81E0848378
:1039200094130CC02F5F3F4F237033272093E00286
:1039300008952F5F3F4F922F9370D9CF0895A0E045
:10394000B0E0E5EAFCE10C945C2BEB012C81211149
:103950005EC070904203A2EEB2E020E030E0812C25
:1039600061E070E0271508F050C01A96AD90BC9049
:103970001B97C880D9804FEF5FEF912CE92CF12C79
:10398000F701EE0FFF1FEC0DFD1D05911491A01620
:10399000B10609F4A7010115110511F09394EECFBA
:1039A0004F3FEFEF5E0769F1FB0102C0EE0FFF1F13
:1039B0004A95E2F78E2AAB01092C02C0440F551F2D
:1039C0000A94E2F741505109E82DF0E04E175F07E5
:1039D000A1F44A815B816CE0629FF001639FF00D6E
:1039E0001124EE51FD4F578346832EEF2083218310
:1039F0009187808721E02D8308C014961C921E9227
:103A000013972F5F3F4F1C96ADCF0E94711CCDB70F
:103A1000DEB7EDE00C94782B1F93CF93DF93C0912A
:103A2000E00217E08091E102C817A1F0D0E0FE01AA
:103A3000EE0FFF1FE852FD4F80819181189FB0016A
:103A4000199F700D112460507F4F0E949F1C21967A
:103A5000C370E8CF0E94F21B0E94591CDF91CF91E6
:103A60001F910895FF920F931F93CF93DF93DC0173
:103A70000C911196FC90119780E090E020E0E02FEF
:103A8000FF2DE20FF11DE20FF11D459154914115FB
:103A90005105B1F0FB011081318190E0E12FF32F4E
:103AA000E90FF11DE90FF11DC591D491209731F077
:103AB0004C175D0709F481E09F5FF0CF2F5FDFCFE8
:103AC000882321F0921728F0CD0104C080E090E017
:103AD00001C0CB01CDB7DEB7E5E00C94802B80911F
:103AE0004701882341F18091450390914603009757
:103AF00011F10E94002420914303309144032817C0
:103B00003907C8F49091E0028091E102981759F0CA
:103B10000E940C1D1092440310924303109246031E
:103B20001092450308950E94F21B109246031092D2
:103B300045030E94591C08951092460310924503B4
:103B4000109247018091E1028093E0020E94591C8B
:103B50000E94F21B089580914701882319F00E946A
:103B60009C1D089581E0809347010895ABE0B0E08B
:103B7000ECEBFDE10C94572B4C016B01883F2CE5DD
:103B8000920741F4FB0112811123B1F081E080938F
:103B900047019CC1893FFCE59F0739F4FB01128175
:103BA000112351F00E949C1D91C18A3F9C4521F434
:103BB000FB01128111110EC000E011E0A12CB12C0B
:103BC0001B8666246394712C9E012F5F3F4F3A87BA
:103BD000298735C00E94AB1D79C1FFEFEF16FF06A4
:103BE00009F42BC1F801648161114CC02091470197
:103BF000822F8170F6013280F801358126813320D1
:103C000009F4BBC0882309F4B8C0332309F43DC0CC
:103C1000930102C0220F331F9A95E2F72150310918
:103C2000F801868190E02817390709F445C0FB8523
:103C3000F329FB872FEFA21AB20A095F1F4F809169
:103C40001C0190911D01A816B90608F0F8C0F801F2
:103C5000408151816FEF8FEF90E0E92EF12CF70159
:103C6000EE0FFF1FE40FF51F259134918216930686
:103C700011F0E62EF82E232B09F4AFCF9F5F6E2DA7
:103C80008F2DEBCF20E030E0B3CFA3010E2C01C08D
:103C9000440F0A94EAF7242B2683209143033091A2
:103CA00044032233310508F0B3CF22E330E03093F0
:103CB000440320934303ACCF809145039091460386
:103CC000009741F00E940024C39720F021E0F80102
:103CD0002483ADCF2090E00280E090E02091E102CB
:103CE0002216A9F1E22CF12CF701EE0FFF1FE8528A
:103CF000FD4F2081318147E0429FC001439F900DDD
:103D00001124FC01E050FF4F2F01B801CF010E94A8
:103D1000321D0097A9F021E0FC0124838017910750
:103D200009F485CF2091E00222120AC048165906F4
:103D300039F497012F5F3F4F237033272093E00220
:103D400097012F5F3F4F422F4370242EC7CF80171C
:103D5000910709F46CCFE22CF12CF701EE0FFF1F55
:103D6000E852FD4FB182A0828FEFE81AF80A93E083
:103D7000E922FF24E092E1025ACF311114C0A301DD
:103D800002C0440F551F9A95E2F74150510930E0A7
:103D90004217530709F043C0662309F441C0C50127
:103DA0000E94711C3CC0822F90E09C01215031097F
:103DB000282339230E2C02C0959587950A94E2F7A3
:103DC000232B59F580FF29C0F80182819381892B2B
:103DD000E1F0E985FA8528E011922A95E9F73EEFAE
:103DE00039833A830E94E8238160582F9D838C8316
:103DF000F801828193818F83988729813A814B8151
:103E00006D817E810E94820B04C060E0C5010E942A
:103E10009B02F801158281E003C0817001C080E03F
:103E200093010E2C01C0220F0A94EAF72095F801A5
:103E3000968129232683382EFACE312CF8CEF6012E
:103E40008281882379F1FB85FF2361F10E94E823B9
:103E5000909346038093450380914203883098F500
:103E600091E0980F9093420398E0F601DE011196DD
:103E700001900D929A95E1F72CE0829FC0011124E8
:103E80008E519D4F28E0FE013196DC0101900D928C
:103E90002A95E1F72FEF3FEFFC01318720879386CA
:103EA000828611C09091E0028091E102981719F08A
:103EB0000E940C1D08C00E94F21B10924603109233
:103EC00045030E94591C11E0FB851F27812F2B966B
:103ED000E2E10C94732BCF93DF9386319C4541F53F
:103EE000EB010E943F0C982F8A8120911E01309196
:103EF0001F01882379F09A7A81E009F480E08093A9
:103F00004703911102C069E201C065E3C9010E9443
:103F10000D230AC080914703811102C069E201C0EC
:103F200065E3C9010E941B230E94830C80E001C04D
:103F300081E0DF91CF9108950F931F93CF93DF938B
:103F4000C42FD22FFC0182818823B1F040934A0311
:103F50000E94E823909349038093480380E28C0FEA
:103F6000883008F04DC0C77081E001C0880FCA9545
:103F7000EAF70E94C80444C080914A03481330C045
:103F800080914803909149030E9400248F3A910543
:103F900038F510E21D0FCD17B9F080E28C0F883094
:103FA00040F4C77081E001C0880FCA95EAF70E940B
:103FB000CF04183010F581E09D2F977001C0880F55
:103FC0009A95EAF70E94C804802F0E94BE04183018
:103FD000B8F4D77081E001C0880FDA95EAF70AC01B
:103FE00080E28C0F883060F4C77081E001C0880FD8
:103FF000CA95EAF70E94CF0403C0802F0E94BE0436
:10400000DF91CF911F910F9108950F939C01CB01E8
:10401000243F4CE5340731F188F4293DFCE53F07A6
:10402000D9F02A3D4CE5340779F1283D3C45A9F506
:1040300006E221EE41EE68ED7CE52BC0263FFCE573
:104040003F07E1F0A8F0273F3C4539F507E225EEB0
:1040500046EE67EF7CE51DC007E225EE45EE69ED13
:104060007CE517C006E221EE40EE64EF7CE511C06E
:1040700007E225EE44EE65EF7CE50BC006E221EE9B
:1040800042EE66EF7CE505C008E221E045EE6AED10
:104090007CE50E949C1F80E008C0FC01828188238F
:1040A00019F010924A0301C081E00F9108958EE14A
:1040B0004A9B02C08150E1F74A9BFECF08955A986F
:1040C00080E28A95F1F75A9A0895FC012AE02A9530
:1040D000F1F728E090E080E031E040E14A95F1F727
:1040E000880F4A9B02C08160932700C0000040E116
:1040F0004A95F1F7215089F720E12A95F1F729B186
:1041000000C0000030E13A95F1F722FB222720F9A8
:1041100092272081920F90830895A1E0B0E0E3E917
:10412000F0E20C94632B19828C017C01E60EF11CE9
:104130000E151F0551F00E945720CE0101960E94D6
:104140006520F80181938F01F3CF81E0998191116E
:1041500080E02196E6E00C947F2B529A5A9A0895BB
:1041600052985A9AEA9AE9E6F0E080818F7C80833F
:104170000895615091E001C0990F6A95EAF720E037
:1041800031E0992361F0492F482319F05A9A2327E7
:1041900001C05A9840E24A95F1F79695F2CF222352
:1041A00011F05A9A01C05A9880E28A95F1F75A980C
:1041B0000895FF920F931F93CF93DF93EC018C012F
:1041C000060F111DC017D10741F0F9900E945F2022
:1041D00068E08F2D0E94B920F5CFCDB7DEB7E5E0BE
:1041E0000C94802B1F920F920FB60F9211240F93F5
:1041F0001F932F933F934F935F936F937F938F936F
:104200009F93AF93BF93EF93FF93CF93DF931F924F
:10421000CDB7DEB719820E945720CE0101960E94C9
:104220006520082F069506950695902F9695957012
:10423000202F2570920F292F237096959695920F17
:10424000877089135FC0898181115CC0053008F0D7
:1042500059C080E18A95F1F75A9A529A82E08A957C
:10426000F1F700C05A9888E0089F80011124D80116
:10427000AF5DBE4F1696ED91FC9117973097A9F060
:104280006091C2017091C30114962D913C911597D4
:10429000260F371F11968D919C911297680F791FE9
:1042A00013964C9113978C910995F801EF5DFE4F91
:1042B0006381662351F08091C2019091C3012481F2
:1042C0003581820F931F0E94D9200E945F2080E1D8
:1042D0008A95F1F75A9852985A9A80E18A95F1F79F
:1042E000F801EF5DFE4F6081662351F08091C201BD
:1042F0009091C30121813281820F931F0E948D20F2
:104300000E9457200F90DF91CF91FF91EF91BF91C5
:10431000AF919F918F917F916F915F914F913F915D
:104320002F911F910F910F900FBE0F901F90189516
:104330000F931F93CF93DF93853091050CF06DC0E1
:10434000EC01F894529A5A9885E08A95F1F70000AA
:104350009C2F969595702C2F2570920F892F837026
:104360009695969523E0CC0FDD1F2A95E1F7980FDF
:104370008E01092B0E945F2084E08A95F1F700C02E
:1043800068E0802F0E94B92080E18A95F1F7529869
:104390005A9A4A9902C000C0FCCF87E090E04A9B3D
:1043A00008C0019721F4529A5A9A789436C000C0F6
:1043B000F6CFFE01EF5DFE4F6381662381F08091B1
:1043C000C2019091C30124813581820F931F0E9405
:1043D0008D20811104C0529A5A9A78941FC00E946D
:1043E000572080E28A95F1F75A98529A80E18A958F
:1043F000F1F7CF5DDE4F6881662351F08091C201F5
:104400009091C30129813A81820F931F0E94D92084
:104410000E945F20789481E001C080E0DF91CF911D
:104420001F910F9108959093CB018093CA01089535
:10443000909351038093500308950E94E9128111D3
:1044400003C080914B030895E0915003F091510314
:10445000309729F00190F081E02D0995089580E0D2
:104460000895FC01A0915003B0915103109791F071
:1044700080915401882341F080917D0387FF04C01F
:104480008081818386E08083CF011296ED91FC913B
:1044900013970995089520914E0330914F032817E3
:1044A000390771F090934F0380934E03E0915003CE
:1044B000F0915103309721F00680F781E02D0995A6
:1044C000089520914C0330914D032817390771F05E
:1044D00090934D0380934C03E0915003F09151036E
:1044E000309721F00084F185E02D09950895FC01B5
:1044F000329680915401882331F080917D0387FFAB
:1045000002C09EE101C096E080E0915028F0219128
:104510002223D9F38F5FF9CF0895662351F12091BB
:1045200054012223E9F020917D0327FF19C0462F73
:104530004695469546954E31E0F4677021E030E0AF
:1045400002C0220F331F6A95E2F7FC01E40FF11D50
:10455000828190E02823392381E0232B69F409C06C
:10456000FC01329608962191621729F0E817F907A5
:10457000D1F780E0089581E008959C01FC01329616
:104580009FEF80E04191461789F09F3F19F4411158
:1045900001C0982F8F5F8630A9F79F3F39F0F9014E
:1045A000E90FF11D97FDFA956283089508959C0126
:1045B0002A5F3F4FFC014281461301C012820196DF
:1045C00082179307B9F70895262F269526952695E5
:1045D0002E3168F4FC01E20FF11D677021E030E03C
:1045E00001C0220F6A95EAF78281282B2283089561
:1045F000262F2695269526952E3170F4FC01E20F84
:10460000F11D677021E030E001C0220F6A95EAF7E2
:10461000209582812823228308952091540122230A
:1046200039F020917D0327FF03C00E94E422089502
:104630000E94BD22089520915401222339F0209137
:104640007D0327FF03C00E94F82208950E94D7220D
:10465000089520915401FC013296222331F080917B
:104660007D0387FF02C08EE101C086E0DF011D925D
:104670008A95E9F7089508950E943B23089583E001
:10468000809352030E943C230895811102C081E06F
:1046900001C082E0809352030E943C2308950E944F
:1046A0004523089581E0809352030E943C2308959E
:1046B0000E945223089508950E945B2308950E944A
:1046C0005C2308950E945B2308950E945B23089554
:1046D0000E945B230895CF930E9465230E9471126C
:1046E0000E946223C0E08C2F0E943C11811104C003
:1046F000CF5FCA30C1F701C081E0CF91089585B77F
:10470000806885BF85B7806885BF08951F920F9226
:104710000FB60F9211248F939F93AF93BF93809105
:104720005303811113C08091DC039091DD03A091AC
:10473000DE03B091DF034196A11DB11D8093DC0320
:104740009093DD03A093DE03B093DF03BF91AF919D
:104750009F918F910F900FBE0F901F901895809191
:10476000E403843031F10E949F031092530320E44C
:1047700088E190E00FB6F894A895809360000FBE92
:104780002093600083B7817F846083BF83B781609B
:1047900083BF7894889583B78E7F83BF0FB6F894D4
:1047A000A8958091600088618093600010926000FD
:1047B0000FBE08950E942B070E94A603089582E071
:1047C00084BD93E095BD9AEF97BD80936E000895E8
:1047D0002FB7F8948091DC039091DD03A091DE0364
:1047E000B091DF032FBF08952FB7F8946091DC03D9
:1047F0007091DD038091DE039091DF032FBF089558
:104800009C014FB7F8948091DC039091DD03A09157
:10481000DE03B091DF034FBF821B930B0895CF924D
:10482000DF92EF92FF922FB7F894C090DC03D09004
:10483000DD03E090DE03F090DF032FBFA7019601B8
:10484000261B370B480B590BCA01B901FF90EF909B
:10485000DF90CF90089578941F920F920FB60F9229
:1048600011248F939F93AF93BF938091DC0390911A
:10487000DD03A091DE03B091DF030196A11DB11D00
:104880008093DC039093DD03A093DE03B093DF03FA
:10489000BF91AF919F918F910F900FBE0F901F907E
:1048A000189587E797E790930108809300089AE0AE
:1048B00088E10FB6F894A895809360000FBE90939E
:1048C0006000FFCF9AE088E10FB6F894A895809336
:1048D00060000FBE90936000FFCF80917703089532
:1048E0000895CF93DF9320915401222339F0209132
:1048F0007D0327FF03C060E222E002C068E021E000
:104900002093E9002FEF3091E800215035FD06C0DB
:1049100035ED3A95F1F700002111F5CF2091E8002F
:1049200025FF1DC0EC0180915401811105C040E0BC
:1049300050E068E070E003C070E040E050E0CE017D
:104940000E949D268091E8008E778093E80080E2A7
:10495000FE01A7E5B3E001900D928A95E1F7DF91A2
:10496000CF91089580935403709356036093550339
:104970008091E403843001F582E08093E9008FEFB9
:104980009091E800815095FD06C095ED9A95F1F75C
:1049900000008111F5CF8091E80085FF0DC040E057
:1049A00050E063E070E084E593E00E949D268091F2
:1049B000E8008E778093E8000895BC0184E00E94AF
:1049C000B2240895BC0183E00E94B22408950895A2
:1049D0008091E303811109C00E9428280E94852844
:1049E0008091E20084608093E20008951092E303D6
:1049F00008950E94582308956091E00381E06111B9
:104A000001C080E00E943F2308959091E40381E07B
:104A1000943009F080E06091E0030E9445230895FE
:104A200042E061EC81E00E94A12742E261EC82E079
:104A30000E94A1279091E40381E0943009F080E086
:104A40006091E0030E944F2308958091E603833034
:104A500009F461C030F4813071F0823009F49BC0F8
:104A600008958A3009F487C08B3009F46CC089300E
:104A700009F0A9C020C08091E503813A09F0A3C0E4
:104A80008091E800877F8093E8008091E90390910E
:104A9000EA03892B21F460E287E593E003C060E03C
:104AA00080E090E070E00E94E2268091E8008B7741
:104AB0008093E80008958091E503813209F083C076
:104AC0008091E9039091EA03029708F07CC08091FD
:104AD000E800877F8093E8008091E80082FD05C0B0
:104AE0008091E4038111F8CF6EC02091F300809192
:104AF000F20090E0922B029731F48091F100813026
:104B000011F0863021F48091F10080937703809139
:104B1000E8008B7754C08091E503813A09F053C0D7
:104B20008091E9039091EA03892B09F04CC08091B0
:104B3000E800877F8093E8008091E80080FFFCCF49
:104B40008091540137C08091E5038132E1F5809175
:104B5000E9039091EA03892BB1F58091E800877F02
:104B60008093E8000E94D6278091E7038093540148
:104B70000E942B0708958091E503813221F58091F1
:104B8000E800877F8093E8000E94D6278091E803A1
:104B90008093780308958091E503813AA1F4809190
:104BA000E800877F8093E8008091E80080FFFCCFD9
:104BB000809178038093F1008091E8008E77809354
:104BC000E8000E94D627089584B7877F84BF0FB678
:104BD000F894A8958091600088618093600010929D
:104BE00060000FBE90E080E80FB6F89480936100FB
:104BF000909361000FBE0E94522308950E942828BE
:104C00000E948528E2EEF0E08081846080837894C1
:104C10000E94102B089588E491E00E9418220895C4
:104C20008091E4038530A9F48091E403853079F420
:104C30000E94AF238091E2038823B1F30E946B238B
:104C4000882391F30E9487260E942B07EDCF0E94B4
:104C5000DA23089508950E942E260895292F3327D8
:104C600023303105C9F060F42130310581F0223064
:104C7000310509F044C08BE390E02DEF33E043C0F1
:104C800021323105E1F02232310549F138C082E1AB
:104C900090E028E334E037C099278130910549F04E
:104CA00028F0029761F5E3EDF3E005C0E9EFF3E0EA
:104CB00002C0E1EEF3E0849190E09F0124C0611511
:104CC000710541F061307105D1F489E090E028E28E
:104CD00034E019C089E090E02FE034E014C06115A1
:104CE000710541F06130710551F48DE690E02AE4E0
:104CF00034E009C080E490E027EB34E004C080E0B9
:104D000090E020E030E0FA0131832083089580E1D3
:104D100089BD82E189BD09B400FEFDCF8091D80034
:104D20008F7D8093D8008091E00082608093E000C6
:104D30008091E00081FDFCCF0895A0E0B0E0E3EABF
:104D4000F6E20C94612BEC018B017A010E94F527AD
:104D5000811133C0E114F10439F0F70180819181B0
:104D6000081B190BC80FD91FC12CD12C0115110517
:104D700019F18091E80085FD16C08091E8008E77DA
:104D80008093E800E114F10449F0F70180819181FA
:104D9000C80ED91ED182C08285E00FC00E94F527BF
:104DA000882321F30AC089918093F10001501109F1
:104DB000FFEFCF1ADF0ADACF80E0CDB7DEB7E8E049
:104DC0000C947D2B2091EB033091EC0326173707D1
:104DD00048F06115710539F42091E8002E77209391
:104DE000E80001C0B901FC0120E06115710579F10D
:104DF0008091E4038823F1F18530F1F18091E8009E
:104E000083FD3CC08091E80082FD2EC08091E800C7
:104E100080FFEBCF2091F3008091F20090E0922B85
:104E20006115710551F08830910538F42191209376
:104E3000F100615071090196F3CF21E0089709F064
:104E400020E08091E8008E778093E800CECF21119A
:104E5000CFCF0AC08091E403882361F0853061F0F0
:104E60008091E80083FD0AC08091E80082FFF2CFC4
:104E700080E0089582E0089583E0089581E0089538
:104E80002091EB033091EC032617370748F06115AA
:104E9000710539F42091E8002E772093E80001C0D5
:104EA000B901FC0120E06115710591F18091E403E5
:104EB000882309F440C0853009F43FC08091E800A0
:104EC00083FD3DC08091E80082FD2FC08091E80005
:104ED00080FFE9CF2091F3008091F20090E0922BC7
:104EE0006115710559F08830910540F424912093A3
:104EF000F1003196615071090196F2CF21E00897D7
:104F000009F020E08091E8008E778093E800CBCF15
:104F10002111CCCF0AC08091E403882361F0853051
:104F200061F08091E80083FD0AC08091E80082FF73
:104F3000F2CF80E0089582E0089583E0089581E053
:104F40000895982F973068F59093E900981739F0F5
:104F50007091EC002091ED005091F00003C0242FDF
:104F6000762F50E021FD02C09F5FECCF3091EB0027
:104F70003E7F3093EB003091ED003D7F3093ED00AC
:104F80003091EB0031603093EB007093EC00209394
:104F9000ED005093F0002091EE0027FDE5CF80E07A
:104FA00008958F708093E90081E008958091E50372
:104FB00087FF11C08091E80082FD05C08091E40365
:104FC0008111F8CF11C08091E8008B770BC08091E0
:104FD000E403882349F08091E80080FFF8CF8091B6
:104FE000E8008E778093E80008952091E4003091E6
:104FF000E50095E64091EC00842F817040FF23C0CE
:105000008091E80080FD1DC08091E403882399F021
:10501000853099F08091EB0085FD11C04091E4004E
:105020005091E5002417350729F3915011F09A01AA
:10503000E1CF84E0089582E0089583E0089581E05F
:10504000089580E008954091E80042FFDDCF089583
:105050000E9497280E949F28E0EEF0E08081816006
:105060008083E8EDF0E080818F77808319BCA7ED25
:10507000B0E08C918E7F8C9380818F7E80831092A4
:10508000E30308950F931F93CF93DF930E94972814
:105090000E949F28C8EDD0E088818F77888388811F
:1050A0008068888388818F7D888319BC1092E4038F
:1050B0001092E0031092E2031092E10300EE10E080
:1050C000F80180818B7F808388818160888342E0C2
:1050D00060E080E00E94A127E1EEF0E080818E7F19
:1050E0008083E2EEF0E0808181608083808188604F
:1050F0008083F80180818E7F8083888180618883AE
:10510000DF91CF911F910F910895E8EDF0E080813C
:105110008F7E8083E7EDF0E080818160808384E092
:1051200082BF81E08093E3030E9442280895E8ED66
:10513000F0E080818E7F80831092E20008951092CB
:10514000DA001092E10008951F920F920FB60F92AD
:1051500011242F933F934F935F936F937F938F937C
:105160009F93AF93BF93EF93FF938091E10082FFF2
:105170000BC08091E20082FF07C08091E1008B7F2D
:105180008093E1000E940F2B8091DA0080FF1FC006
:105190008091D80080FF1BC08091DA008E7F8093C1
:1051A000DA008091D90080FF0DC080E189BD82E1E5
:1051B00089BD09B400FEFDCF81E08093E4030E9425
:1051C000E82405C019BC1092E4030E94F6248091E3
:1051D000E10080FF19C08091E20080FF15C080913E
:1051E000E2008E7F8093E2008091E20080618093F4
:1051F000E2008091D80080628093D80019BC85E0DD
:105200008093E4030E94FC248091E10084FF30C07D
:105210008091E20084FF2CC080E189BD82E189BDDC
:1052200009B400FEFDCF8091D8008F7D8093D80017
:105230008091E1008F7E8093E1008091E2008F7E7B
:105240008093E2008091E20081608093E20080918F
:10525000E003882311F084E007C08091E30087FD1C
:1052600002C081E001C083E08093E4030E94052531
:105270008091E10083FF29C08091E20083FF25C077
:105280008091E100877F8093E10082E08093E403D6
:105290001092E0038091E1008E7F8093E100809185
:1052A000E2008E7F8093E2008091E2008061809333
:1052B000E20042E060E080E00E94A1278091F000DF
:1052C00088608093F0000E94F924FF91EF91BF91D4
:1052D000AF919F918F917F916F915F914F913F918E
:1052E0002F910F900FBE0F901F9018951F920F9245
:1052F0000FB60F9211242F933F934F935F936F93A9
:105300007F938F939F93AF93BF93CF93DF93EF934D
:10531000FF93C091E900CF708091EC00D82FD1703D
:1053200080FDD0E81092E9008091F000877F8093A3
:10533000F00078940E94BA291092E9008091F00060
:1053400088608093F000CD2BCF70C093E900FF916F
:10535000EF91DF91CF91BF91AF919F918F917F910D
:105360006F915F914F913F912F910F900FBE0F90D2
:105370001F901895AAE2B0E0E0ECF9E20C94662BDD
:10538000E5EEF3E08091F100819323E0ED3EF2073A
:10539000C9F70E9425258091E80083FF2EC18091E6
:1053A000E5039091E603492F50E04A30510508F09B
:1053B00024C1FA01EE59FF4F0C94512B803821F093
:1053C000823809F01AC108C08091E1039091E2038C
:1053D000992389F082600FC08091E9038F70873034
:1053E00008F00BC18093E9008091EB0085FB8827D2
:1053F00080F91092E9009091E800977F9093E8007F
:105400008093F1001092F100D1C0282F2D7F09F078
:10541000F4C0882319F0823061F0EFC08091E70377
:10542000813009F0EAC0933009F080E08093E20314
:105430002EC08091E70381112AC08091E9038F700B
:105440002FEF280F263008F0D8C08093E900209174
:10545000EB0020FF1CC0933021F48091EB008062B0
:1054600014C09091EB0090619093EB0021E030E04C
:10547000A90102C0440F551F8A95E2F74093EA0044
:105480001092EA008091EB0088608093EB0010920C
:10549000E9008091E800877F8093E8000E94D6278A
:1054A000ACC08111AAC01091E7031F778091E3007F
:1054B0008078812B8093E3008091E800877F809340
:1054C000E8000E94D6278091E80080FFFCCF809101
:1054D000E30080688093E300111102C082E001C004
:1054E00083E08093E40389C08058823008F085C04F
:1054F0008091E7039091E8038C3D53E0950779F59F
:1055000083E08A838AE289834FB7F894DE01139699
:1055100020E03EE051E2E32FF0E050935700E491A9
:1055200020FF03C0E295EF703F5FEF708E2F90E099
:10553000EA3010F0C79601C0C0968D939D932F5FFF
:10554000243149F74FBF8091E800877F8093E800BE
:105550006AE270E0CE0101960E94E22616C06091D8
:10556000E9037091EA03AE014F5F5F4F0E942B2663
:10557000BC01892B09F441C09091E800977F90937A
:10558000E80089819A810E9440278091E8008B770A
:105590008093E80032C0803881F58091E800877FF1
:1055A0008093E8008091E0038093F1008091E8000F
:1055B0008E7772CF811121C08091E7039091E8032B
:1055C00099270297D4F48091E800877F8093E800C0
:1055D0008091E7038093E0030E94D6278091E00347
:1055E000811106C08091E30087FD02C081E001C007
:1055F00084E08093E4030E9410258091E80083FFFB
:105600000AC08091E800877F8093E8008091EB00DA
:1056100080628093EB00AA96E3E00C94822B0895BD
:10562000CF938091E4038823A1F0C091E900CF706B
:105630009091EC00892F817090FD80E8C82B10922A
:10564000E9008091E80083FD0E94BA29CF70C093E1
:10565000E900CF9108950E9428281092E40308954C
:10566000E8EDF0E08081806180838AE18A95F1F73E
:1056700000C08091D90081700895AA1BBB1B51E125
:1056800007C0AA1FBB1FA617B70710F0A61BB70BB2
:10569000881F991F5A95A9F780959095BC01CD0157
:1056A0000895EE0FFF1F0590F491E02D09942F92BD
:1056B0003F924F925F926F927F928F929F92AF92A2
:1056C000BF92CF92DF92EF92FF920F931F93CF93EF
:1056D000DF93CDB7DEB7CA1BDB0B0FB6F894DEBF86
:1056E0000FBECDBF09942A88398848885F846E84AC
:1056F0007D848C849B84AA84B984C884DF80EE80F6
:10570000FD800C811B81AA81B981CE0FD11D0FB6FE
:10571000F894DEBF0FBECDBFED010895FC014150EE
:10572000504030F001900616D1F73197CF0108951F
:10573000882799270895FB01DC0104C08D91019011
:10574000801921F441505040C8F7881B990B0895E7
:10575000FB01DC0102C001900D9241505040D8F78E
:105760000895F999FECF92BD81BDF89A992780B529
:105770000895A6E1B0E044E050E00C94EB2BA8E1E2
:10578000B0E042E050E00C94EB2B262FF999FECFCD
:1057900092BD81BDF89A019700B4021639F01FBA84
:1057A00020BD0FB6F894FA9AF99A0FBE08950396A1
:1057B000272F0E94C62B0E94C52B252F0E94C62B87
:1057C000242F0C94C62B0196272F0E94C62B0C94D5
:1057D000C52BDC01CB01FC01F999FECF06C0F2BD5F
:1057E000E1BDF89A319600B40D9241505040B8F79F
:0657F0000895F894FFCFBC
:1057F600CA021C14000000C4021314000000BE02FA
:105806001414000000B8021614000000040062021E
:10581600010000000100000000000000050100007A
:10582600000406000000000000080A000000000056
:1058360000001600161601016D247124E724E224E7
:10584600DD24702401E200E900EA00B500B600B7E5
:1058560000CD008301CC008A01920194012102232C
:105866000224022502260227022A02B300B4006F90
:10587600007000818283E200E900EA00B500B6000C
:10588600B700CD008301CC008A0192019401210268
:10589600230224022502260227022A02B300B400AC
:1058A6006F007000818283F6F7313332366697C611
:0A58B6003435A102000102020200D5
:00000001FF
