:100000000C947C020C9499020C9499020C942D226D
:100010000C9499020C9499020C9499020C949902F4
:100020000C9499020C9499020C94B5290C94872A8B
:100030000C94A9240C9499020C9499020C949902A2
:100040000C9499020C9499020C9499020C949902C4
:100050000C9499020C944D250C9499020C949902DD
:100060000C9499020C9499020C9499020C949902A4
:100070000C9499020C9499020C9499020C94990294
:100080000C9499020C9499020C9499020C94990284
:100090000C9499020C9499020C9499020C94990274
:1000A0000C9499020C9499020C9499022905290543
:1000B00055055505B705E206E206E206D5056E06CA
:1000C0007F067F06F42A1B2B132C1B2B132C672B6C
:1000D0008A2B132CE12BF02B35001E001F00200073
:1000E000210022002B0014001A0008001500170040
:1000F000290004001600070009000A00E1001D00A5
:100100001B00060019000500E000E200E3002B419F
:100110002C00E100230024002500260027002A00EF
:100120001C0018000C00120013004C000B000D0006
:100130000E000F00330034001100100036003700AD
:100140003800520028002A004C4250744F005100E1
:1001500000000000000000000000000000001D0181
:100160001B01060119011C01000004011601000019
:10017000000000000000000000000000000000007F
:10018000000000000000000000000000000000006F
:1001900000000000000000004B00500152004F0121
:1001A0004A0000004E00500051004F004D0000007A
:1001B000000000000000000000000000000000003F
:1001C0004C4200000000000000003A003B003C00F0
:1001D0003D003E0000001E001F0020002100220004
:1001E00000001E021F022002210222020000310034
:1001F00038002E002E022D000000000034003402D2
:100200002D0200003F004000410042004300440036
:100210002300240025002600270045002302240295
:10022000250226022702000031022F002F02300291
:10023000300000000000000000000000000000008E
:100240000000000000000000000000000000C55C8D
:1002500000000000000000000000CA5C0000000078
:10026000000000000000000000000000000000008E
:10027000000000000000000000000000000000007E
:10028000000000000000000000000000000000006E
:100290000000005C00000000000000000000000002
:1002A000000000000000000000000000000000004E
:1002B000000000000000000016000700000004001D
:1002C000160000000C001200000018000C000000D6
:1002D000783C1E000101010101010101010202023D
:1002E00002020202020203030303030303030404E2
:1002F00004040404040505050505060606060607AC
:100300000707070708080808090909090A0A0A0B64
:100310000B0B0C0C0C0D0D0D0E0E0E0F0F0F101005
:10032000111111121213131414151516161717188C
:100330001819191A1A1B1B1C1D1D1E1E1F202021F7
:100340002222232424252626272829292A2B2C2D3E
:100350002D2E2F30313232333435363738393A3B5F
:100360003C3D3E3F404142434445464748494A4C54
:100370004D4E4F50515354555658595A5B5D5E5F20
:10038000616264656668696B6C6D6F7072737577B6
:10039000787A7B7D7E8082838587888A8C8E8F9118
:1003A000939596989A9C9EA0A2A3A5A7A9ABADAF42
:1003B000B1B3B5B7BABCBEC0C2C4C6C9CBCDCFD12C
:1003C000D4D6D8DBDDDFE2E4E7E9EBEEF0F3F5F8D5
:1003D000FAFDFF0C0373003600300048004B0000AC
:1003E000001603730069006D0070006C0079004B0B
:1003F0000065006500620000000403090409023B77
:1004000000020100A0FA0904000001030101000933
:1004100021110100012240000705810308000109A4
:100420000401000103000000092111010001226DF7
:1004300000070582032000011201000200000008ED
:100440001014010001000102000105010980A10151
:10045000850319012AB700150126B700950175100B
:100460008100C0050C0901A101850419012AA0021F
:10047000150126A002950175108100C0050109062D
:10048000A1018506050719E029E715002501950852
:10049000750181020507190029EF1500250195F066
:1004A000750181020508190129059505750191025B
:1004B000950175039101C005010906A10105071900
:1004C000E029E71500250195087501810295017560
:1004D0000881010507190029FF150026FF00950670
:1004E0007508810005081901290595057501910216
:1004F000950175039101C00011241FBECFEFDAE012
:10050000DEBFCDBF11E0A0E0B1E0E0ECF9E502C054
:1005100005900D92AC3CB107D9F723E0ACECB1E00B
:1005200001C01D92A53FB207E1F70E9483160C940B
:10053000DE2C0C94000008950F9303E022E041E0CC
:100540000E9404030F91089581E0089581E00895C9
:100550000C94A60208950C94AA021F93CF93DF93E4
:1005600000D000D01F92CDB7DEB749835A836B838A
:100570003091CF0189819A81311114C0662359F0DD
:10058000222349F00E942E09182F682F89819A8111
:100590000E94D50803C00E940109182F69817A8141
:1005A000812F04C00E942E0969817A810F900F90DB
:1005B0000F900F900F90DF91CF911F910C949C1092
:1005C000FC01262F86819781009739F44081518163
:1005D0006281738184810C94AD020895CF93DF937F
:1005E000EC0161E00E94E002BE01DF91CF910C942A
:1005F000B81ECF93DF93EC0160E00E94E002BE01E1
:10060000DF91CF910C94AB028F929F92AF92BF92E9
:10061000CF92DF92EF92FF920F931F936B017C01B9
:1006200081E090E0A0E0B0E04C015D0104C0880CE6
:10063000991CAA1CBB1C4A95D2F7AC01BD0104C091
:10064000440F551F661F771F2A95D2F7482959294D
:100650006A297B2904C0880F991FAA1FBB1F0A950E
:10066000D2F78A019B010C211D212E213F21401729
:1006700051076207730739F4BC01CD016C297D294C
:100680008E299F290AC080959095A095B095BC01B0
:10069000CD016C217D218E219F211F910F91FF9013
:1006A000EF90DF90CF90BF90AF909F908F90089584
:1006B0000C942F120C942B1208950E9475070E941F
:1006C0005C032FEF84E39CE0215080409040E1F7F1
:1006D00000C000000C9473250F931F93CF93DF93FA
:1006E0008C0161E00E94E002EC01B8010E94A802C6
:1006F000882309F444C0B801CE010E943821882320
:10070000F1F1B801CE010E94941B8823C1F1B80118
:10071000CE010E949420882391F1B801CE010E945D
:10072000C51A882361F1F8018281882309F1CB354C
:100730008DE5D807C1F050F4C115FCE5DF0781F065
:10074000CF3DDC45A9F40E94B20E19C0CC35EDE5D1
:10075000DE0761F0CD35DD4559F40E94F50D08C086
:100760000E945D030CC00E94FE0D02C00E94010E9B
:10077000C801DF91CF911F910F910C94A40280E0EA
:10078000DF91CF911F910F9108950E948C240E94B8
:10079000E2030C94BC190E94E5030E9478190C94A2
:1007A000922408950C94D10381E008950C94D4030D
:1007B0000895CF93C82F0E94D2038C2F0E94D60396
:1007C000CF91089580E00C94D9030E9458230C9493
:1007D000D9030E9458239091CE01891721F080936C
:1007E000CE010C94D9030895CF93DF93CDB7DEB734
:1007F0002D970FB6F894DEBF0FBECDBF49875A873D
:100800006B877C878D8761110E94410D9E012F5F50
:100810003F4F88E0F90111928A95E9F785E0FE01E2
:100820003996D90101900D928A95E1F789819A81D3
:100830004C815D81452B31F09F3F31F491E08F3F3A
:1008400019F403C091E001C090E090FF0BC0298132
:100850003A814B815C816D817E818F8198850E9478
:100860005B0C05C0C9010E94EE028111F0CF2D96EC
:100870000FB6F894DEBF0FBECDBFDF91CF910895C4
:10088000FC01808191810E9470090895CF93882393
:1008900009F448C0C82F8CEF8C0F813AD0F46C2F2C
:1008A00080912001909121010E94C723882349F063
:1008B0006C2F80912001909121010E9452240E946E
:1008C000630D6C2F80912001909121010E9447249B
:1008D0000CC080E28C0F883058F4C77081E001C0F2
:1008E000880FCA95EAF70E94240DCF910C94630DEE
:1008F000EBE5EC0FE33040F4F0E0EB57FE4F808186
:1009000090E0CF910C948523C85AC73158F4EC2F4E
:10091000F0E0EE0FFF1FE95AFE4F80819181CF91E9
:100920000C949B23CF910895882349F1682F8CEF75
:10093000860F813A38F480912001909121010E9424
:1009400052240CC080E2860F883050F4677081E03A
:1009500001C0880F6A95EAF70E942A0D0C94630D76
:100960008BE5860F833020F480E090E00C948523A3
:10097000685A673120F480E090E00C949B2308953E
:100980001F93CF93DF93182FEB010E94460420970B
:1009900041F08FE99FE00197F1F700C00000219737
:1009A000F6CF812FDF91CF911F910C94940489335E
:1009B00019F060E070E002C060E570E00C94C004E3
:1009C000882321F00E94240D0C94630D0895882340
:1009D00021F00E942A0D0C94630D0895CF92DF92AE
:1009E000EF92FF920F931F93CF93DF937C01D62F4B
:1009F000C72FFC011281058102950F700E941A0D0C
:100A00008823B9F01123A9F08C2F807F803421F046
:100A100080E28D0F883068F08091860382FD09C0E6
:100A200082E00E94C30D0E941A0D91E0D82ED926B3
:100A300001C0D12CCC2EC2948FE0C8228C2D90E026
:100A40008C30910508F0BEC1FC01EA5AFF4F0C94AE
:100A50006D2C8C2F807FCF70882311F0C295C07FC2
:100A6000112399F0CC2309F499C180E28D0F8830CD
:100A700010F0D11104C08C2F0E94240D03C08C2FC4
:100A80000E94340D0E94630D89C18D2F0E94940431
:100A9000CC2309F497C180E28D0F883038F1DD2333
:100AA00029F18C2F0E943A0D24C08C2F807FCF70AB
:100AB000803211F0C295C07FDD2319F0D130A1F151
:100AC00040C08091860382FF17C0112349F0CC23D8
:100AD00029F08C2F0E94240D0E94630D80E05FC1DD
:100AE00080E00E949404CC2309F46CC18C2F0E94F6
:100AF0002A0D0E94630D66C1112371F0002341F09D
:100B0000013031F40E94440D8C2B0E944C0D5AC1CF
:100B10000E94440D8C2B0EC0002319F0013009F403
:100B200051C10E94590D1FC0112339F0063008F041
:100B300049C18C2F0E94E00445C1053008F042C134
:100B400012C0112319F00023A1F328C1002359F08A
:100B5000D93309F034C1FFEF07EE13E0F150004044
:100B60001040E1F72AC18C2F0E94E7042BC18C2F83
:100B700086958695837019F0813061F023C1112329
:100B800021F08D2F9C2F937002C080E090E00E9496
:100B9000852320C1112321F08D2F9C2F937002C03B
:100BA00080E090E00E949B2315C18C2F837009F098
:100BB00047C011110BC12D2F229526952770220FAA
:100BC000220F6D2F6F70862F90E0A0E0B0E0022E14
:100BD00004C0880F991FAA1FBB1F0A94D2F7D4FF25
:100BE00010C04FE050E060E070E004C0440F551FBB
:100BF000661F771F2A95D2F740955095609570959E
:100C000003C040E050E0BA01C695C695C3708A01A2
:100C10009B01082B192B2A2B3B2BC901B801C23091
:100C200049F058F4C13019F00E94EB07CFC00E9480
:100C3000D907CCC00E94FD07C9C00E94D707C6C013
:100C4000112319F08C2F817001C08695882309F437
:100C5000BDC02D2F229526952770220F220F6D2FB4
:100C60006F70862F90E0A0E0B0E0022E04C0880FE5
:100C7000991FAA1FBB1F0A94D2F7D4FF10C04FE0E0
:100C800050E060E070E004C0440F551F661F771FFE
:100C90002A95D2F7409550956095709503C040E035
:100CA00050E0BA01C695C695C3708A019B01082B16
:100CB000192B2A2B3B2BC901B801C23049F058F43B
:100CC000C13019F00E94B00881C00E949E087EC009
:100CD0000E94C2087BC00E94110878C0CF70112307
:100CE00039F08C2F0E9437088D2F0E94E0046EC0CF
:100CF0008D2F0E94E7048C2F0E94580867C0D23FB6
:100D000021F128F4D03F41F0D13FC1F043C0D33F9F
:100D100019F1D43F79F03EC0112341F0053008F0BD
:100D200051C08C2F8F710E947D084CC0063008F096
:100D300049C0F7CF8091860382FF18C0112339F094
:100D40008C2F8F710E9437083DC01123C9F38C2F5F
:100D50008F710E94580836C0112329F08C2F8F7193
:100D60000E9422082FC00E941D082CC0112349F0A8
:100D7000CF718C2F0E94370863E08C2F0E94A80D42
:100D800021C081E00E94C30D0230E0F082E00E94A9
:100D9000C30D18C0112331F0002391F28D2F0E9452
:100DA000460410C0002399F2D93349F41FEF27EE0F
:100DB00033E0115020403040E1F700C000008D2F9B
:100DC0000E94940488EF8C0D843020F40E945823F4
:100DD0000E94D903DD20C9F00E94160D80FD15C0C8
:100DE000F70112820E94100D0E943708C7010E946D
:100DF0002D070E94100DDF91CF911F910F91FF9051
:100E0000EF90DF90CF900C945808DF91CF911F9115
:100E10000F91FF90EF90DF90CF9008950F931F9365
:100E2000CF93DF93EC018E819F81009719F00E9490
:100E30009A0F05C0688179818A810E947B098C01A3
:100E40000E94D4080E94C507B801CE010E94EE049A
:100E5000DF91CF911F910F910895CF93DF93EC0114
:100E6000988189812B813C81232B31F08F3F31F494
:100E700081E09F3F19F403C081E001C080E080FD64
:100E80001DC0CE010E946C03811110C00E941A0D7A
:100E90008823A1F08A81882389F08091860382FDCE
:100EA0000DC082E0DF91CF910C94C30DCE010E9462
:100EB0000E07CE01DF91CF910C94F902DF91CF9113
:100EC000089580E090E00E94852380E090E00E94F9
:100ED0009B230E94410D0C94630D80912001909101
:100EE00021010E945D240C9461070E94310D0C9435
:100EF0006D0792959F70963079F010F4925001C072
:100F00009A50923068F4803F69F018F4883E40F4BB
:100F100009C0843F29F406C0883E20F0813F11F0CB
:100F200080E0089581E00895FC0186819781009713
:100F300019F00E949A0F04C0808191810E9470096B
:100F40000E9479070895CF93DF9300D000D01F92BD
:100F5000CDB7DEB70F900F900F900F900F90DF91ED
:100F6000CF910895CF93DF93CDB7DEB728970FB613
:100F7000F894DEBF0FBECDBF28960FB6F894DEBF43
:100F80000FBECDBFDF91CF910895089508950C94C1
:100F9000C6070C94C7070E94C9076093FC017093B1
:100FA000FD018093FE019093FF010C9461070C9466
:100FB000CB070F931F930091FC011091FD0120912D
:100FC000FE013091FF01602B712B822B932B1F911F
:100FD0000F910C94CB070F931F930091FC0110917C
:100FE000FD012091FE013091FF01602371238223D6
:100FF00093231F910F910C94CB070F931F93009194
:10100000FC011091FD012091FE013091FF0160274C
:101010007127822793271F910F910C94CB070C9473
:101020009C020E940F086093F8017093F90180936D
:10103000FA019093FB010C94610760E070E0CB0132
:101040000C9411080F931F9341E050E060E070E0B2
:101050008A019B0104C0000F111F221F331F8A95B4
:10106000D2F7C901B8011F910F910C9411080F9389
:101070001F9341E050E060E070E004C0440F551F52
:10108000661F771F8A95D2F78091F8019091F90138
:10109000A091FA01B091FB018A019B01082B192B49
:1010A0002A2B3B2BC901B8011F910F910C941108F9
:1010B0000F931F9341E050E060E070E004C0440FE4
:1010C000551F661F771F8A95D2F7409550956095FA
:1010D00070958091F8019091F901A091FA01B09179
:1010E000FB018A019B01082319232A233B23C90101
:1010F000B8011F910F910C9411080F931F9341E0B9
:1011000050E060E070E004C0440F551F661F771F79
:101110008A95D2F78091F8019091F901A091FA0196
:10112000B091FB018A019B01082719272A273B2739
:10113000C901B8011F910F910C9411080F931F93CF
:101140000091F8011091F9012091FA013091FB0111
:10115000602B712B822B932B1F910F910C941108F4
:101160000F931F930091F8011091F9012091FA015A
:101170003091FB0160237123822393231F910F91F0
:101180000C9411080F931F930091F8011091F9012D
:101190002091FA013091FB01602771278227932764
:1011A0001F910F910C9411080895292F220F920F6F
:1011B000990F890FE82FE695E695E695877051E03F
:1011C00001C0550F8A95EAF785E0E89FF0011124E8
:1011D000E053FE4F20E030E070E04081CB01022E72
:1011E00002C0969587950A94E2F7817081958427CD
:1011F0008523842781932F5F3F4F2530310569F781
:101200000895292F220F920F990F890F682F669545
:1012100066956695982F977085E0689FB0011124B8
:1012200040E050E080E0FB01E40FF51FE053FE4F8B
:10123000208130E0092E02C0369527950A94E2F706
:1012400021703327042E01C0220F0A94EAF7822B63
:101250004F5F5F4F4530510531F70895BF92CF92F0
:10126000DF92EF92FF920F931F93CF93DF938C0146
:10127000C090F801D090F901E090FA01F090FB01E4
:101280008091FC019091FD01A091FE01B091FF01C0
:10129000C82AD92AEA2AFB2ACFE1D0E0D701C60121
:1012A0000C2E04C0B695A795979587950A94D2F70A
:1012B00080FD04C0219790F7B12C07C0BC2EB80167
:1012C0008C2F0E94AF100197A9F38B2DDF91CF9146
:1012D0001F910F91FF90EF90DF90CF90BF900895F6
:1012E000CF93DF93EC010E942E09BE010E94AF1044
:1012F000DF91CF9108951F93CF93DF93EB019091EE
:10130000CF01992321F0CB010E94700913C08823DB
:1013100049F0CB010E942E09182F682FCE010E94A0
:10132000D50804C0CB010E940109182FBE01812FEE
:101330000E94AF10DF91CF911F910895CF93DF935B
:10134000C091000280910102C817B1F0D0E0FE0107
:1013500083E0EE0FFF1F8A95E1F7EE5FFD4F2081DE
:1013600031814281538164817581868197810E9498
:10137000B2072196C770E6CFDF91CF9108952091F3
:1013800042023091430240914402509145026091E3
:1013900046027091470280914802909149020C9454
:1013A000B20720910002909101022917B1F030E0BC
:1013B000F90153E0EE0FFF1F5A95E1F7EE5FFD4F85
:1013C0005181561306C05081581303C052815413E3
:1013D00006C02F5F3F4F2770E8CF80E0089581E07F
:1013E0000895FF920F931F93CF93DF93809147024D
:1013F00082958F7009F063C080914402882309F4BC
:101400005EC080910002F0900102109142020091B2
:101410004302609145027091460291E01F3F09F03E
:1014200090E0C0911E01D0911F01292F8F1509F462
:1014300046C06115710521F00F3F21F030E003C077
:1014400031E001C0322F90E030FD36C0FC0133E0C6
:10145000EE0FFF1F3A95E1F7DF01AE5FBD4F11962A
:101460003C911197301328C03C91311325C012963E
:101470003C911297311120C013964D915C911497B5
:10148000461B570B4C175D07B8F4809147028F70CD
:10149000806180934702E95FFD4F80818F7080619A
:1014A000808382E492E00E942D07DF91CF911F910B
:1014B0000F91FF900C949E0901968770B7CFDF9132
:1014C000CF911F910F91FF9008958F929F92AF92AD
:1014D000BF92CF92DF92EF92FF920F931F93CF9321
:1014E000DF93CDB7DEB765970FB6F894DEBF0FBEBA
:1014F000CDBF8C0185E0F801DE01519601900D927F
:101500008A95E1F7D8011296EC90909142022091D1
:10151000430240914502509146024115510531F078
:101520002F3F31F481E09F3F19F403C081E001C0F7
:1015300080E080FD92C1F801C080D18083809480DA
:1015400082E4A82E82E0B82EF0904402B401641B1D
:10155000750B40911E0150911F01FF2009F444C1F9
:1015600080914702382F307F6417750708F0EFC06D
:10157000311193C0D2121DC0C9121BC04091480244
:1015800050914902268137814217530791F4FE2C6E
:10159000E1100FC08F708061809347020E94BF09E5
:1015A000C5010E942D0780914702D80115968C93A2
:1015B0006EC18114910439F0BFEFDB1206C081E0E7
:1015C000CB1203C003C081E001C080E080FD03C0F6
:1015D00081E08E2502C080E090E080FF10C04E2D9B
:1015E0006D2D8C2D0E94D109882349F082E492E070
:1015F0000E942D07E2E4F2E088E0DF01B8C089280C
:1016000039F0BFEFDB1206C081E0CB1203C003C08C
:1016100081E001C080E080FD03C081E08E2502C032
:1016200080E090E0E82FE170BE2E80FF2CC04E2DB0
:101630006D2D8C2D0E94D109F82E811124C0C98AEC
:10164000DA8A89899A890E947009292F22952F7038
:10165000223018F0243090F405C09F7059F08111A9
:1016600009C015C19F7031F0D80115969C91907FEB
:1016700009F40DC1805E883008F409C1C8010E94D8
:101680002D07FB2C04C1FE2CEE2009F400C1809133
:1016900047028160809347026FC0D2121BC0C912FB
:1016A00019C04091480250914902F80126813781C2
:1016B0004217530779F4E1100DC08583C8010E94D9
:1016C0002D0788E0F801A2E4B2E001900D928A951E
:1016D000E1F7DBC0C8010E949407882391F1EE2056
:1016E00081F120914702822F82958F7090E00297BE
:1016F000A4F080914202909143029A8789871B86C9
:101700009D868C862E878091480290914902988B05
:101710008F87CE0109960E942D0788E0F801A2E488
:10172000B2E001900D928A95E1F70E94F1090E94C2
:10173000BF090AC0D21611F1C8010E949407811195
:1017400035C0C8010E942D07FF24F394A0C03111B9
:10175000F1CF782D9D8A8C8AA6016E2D8D890E94ED
:10176000A30782E492E00E942D0788E0D5011D9234
:101770008A95E9F70E94BF09F12C89C0C912DCCF14
:101780004091480250914902F80126813781421761
:10179000530791F6E110D0CF8583C8010E942D0731
:1017A00088E0D5011D928A95E9F771C0EE2049F2D3
:1017B00020914702822F82958F7090E002970CF45F
:1017C000ACCF80914202909143029A8389831B821D
:1017D0009D828C822E838091480290914902988745
:1017E0008F83CE01019697CF6417750740F5FE2CC5
:1017F000EE2009F4A6CFD21214C0C91212C0209153
:10180000480230914902F8018681978128173907EB
:1018100041F488E0A2E4B2E001900D928A95E1F7EC
:1018200036C0C8010E949407811177CF809147028A
:10183000816080934702C8010E942D0728C0782D3F
:101840009D8A8C8AA6016E2D8D890E94A30788E04F
:10185000D5011D928A95E9F718C0EE2009F471CFE1
:10186000C8010E949407F82E882309F46ACF88E003
:10187000F801A2E4B2E001900D928A95E1F782E4CA
:1018800092E00E9440040E94F1090E94BF098F2D3E
:1018900065960FB6F894DEBF0FBECDBFDF91CF9136
:1018A0001F910F91FF90EF90DF90CF90BF90AF907E
:1018B0009F908F900895CF93DF93CDB7DEB7609759
:1018C0000FB6F894DEBF0FBECDBF29873A874B878E
:1018D0005C876D877E878F87988BCE0109960E94E3
:1018E000650A8823E1F099858A852C853D85232B1F
:1018F00031F08F3F31F481E09F3F19F403C081E064
:1019000001C080E080FD6FC029853A854B855C85EC
:101910006D857E858F8598890E94B20764C088E0B6
:10192000FE013996DE01119601900D928A95E1F73C
:1019300079856A854C855D854115510531F06F3F8C
:1019400031F481E07F3F19F403C081E001C080E001
:1019500080FD49C0A0910102B0E0CD0101968770E1
:1019600099272091000230E08217930709F442C0C2
:1019700079836A835D834C8393E0AA0FBB1F9A959A
:10198000E1F7AE5FBD4F98E0FE01319601900D92F8
:101990009A95E1F7809301020E949E0924C028E0F5
:1019A000829FC00111248E5F9D4F0E94650A88238B
:1019B00071F1E091000288E0E89FF0011124EE5FF0
:1019C000FD4F2081318142815381648175818681FF
:1019D00097810E94B2078091000290E00196877083
:1019E000992780930002809100029091010289134F
:1019F000D6CF0DC00E94750710920102109200020E
:101A0000E2E4F2E088E0DF011D928A95E9F7609652
:101A10000FB6F894DEBF0FBECDBFDF91CF91089512
:101A200080916A02859585958595089580916A02D1
:101A30008770089590916A02977081E009F480E0C0
:101A4000089580918D02089590918D02892B809345
:101A50008D020895809590918D02892380938D0247
:101A6000089510928D02089590918C02892B809395
:101A70008C020895809590918C02892380938C022A
:101A8000089510928C02089580916B020895089534
:101A90000C94470D0C94480D9091860392FD08C05C
:101AA00090916B02981721F080936B020C944A0D71
:101AB000089580916B02882329F010926B0280E0D8
:101AC0000C944A0D0895CF93DF93E0912001F0919B
:101AD000210180918D028083E0912001F09121010C
:101AE000908180918C02892B808380916B02882366
:101AF00081F0E0912001F09121019081892B808378
:101B000080912001909121010E94B12381110E94B6
:101B1000590DC0912001D091210140E250E06AE4CA
:101B200072E0CE010E94802C892B69F080E2FE01D8
:101B3000AAE4B2E001900D928A95E1F7CE01DF911F
:101B4000CF910C946B23DF91CF9108950C94470DA6
:101B50009091860392FD10C098E0899F9001112416
:101B6000262B20936A020E94370880916A0285958D
:101B7000859585950C94A60D0C94370810926A02F1
:101B800080E00C94A60D20916A02809582238093B8
:101B90006A02982F977099F430E0482F082E000CB5
:101BA000550B2417350759F09091860392FD07C015
:101BB0008595859585950E9458080C94BE0D0895CD
:101BC0009091860392FB222720F9281769F080FB69
:101BD00092F99093860380918503909186030E94E9
:101BE0002E0E82E00C94C30D08958091860382FB33
:101BF000882780F991E089270C94E00D81E00C940E
:101C0000E00D80E00C94E00D6FEF7FEF80E090E05E
:101C10000C94C82C80E090E00E94A42C21E0893E26
:101C20009E4F09F020E0822F089582E090E00C940E
:101C3000962C83E090E00C94962CCF9384E090E077
:101C40000E94962CC82F82E290E00E94962C2C2FA6
:101C500030E0A901582BCA01CF910895CF93C92F25
:101C6000682F84E090E00E94AA2C6C2F82E290E022
:101C7000CF910C94AA2CAB01BC018FE090E00C94A6
:101C8000BC2CAB01BC0183E190E00C94BC2C60E067
:101C900070E0CB010C94410E60E070E0CB010E943B
:101CA0003B0E0C94470E69EE7EEF80E090E00E94C0
:101CB000C82C60E082E090E00E94AA2C60E083E003
:101CC00090E00E94AA2C1092FC011092FD0110924B
:101CD000FE011092FF0160E084E090E00E94AA2CD7
:101CE00060E082E290E00E94AA2C60E085E090E053
:101CF0000E94AA2C60E086E090E00E94AA2C6FEF80
:101D000087E090E00E94AA2C40E050E0BA0188E011
:101D100090E00E94BC2C60E08DE090E00E94AA2C34
:101D200040E050E0BA0188E190E00E94BC2C60E005
:101D300087E190E00E94AA2C40E050E0BA018CE1DB
:101D400090E00E94BC2C60E070E080E290E00E9495
:101D5000C82C40E050E0BA0188E190E00E94BC2C21
:101D60000C944C0E0C94530E682F8EE090E00C9463
:101D7000AA2C0E94162560939C0270939D0280936A
:101D80009E0290939F0260939802709399028093B1
:101D90009A0290939B02089585B7806885BF85B7A6
:101DA000806885BF08950C94E31308950C94D50EB4
:101DB0000C94D50E0C94D80E0C94D50E0C94DC0E0D
:101DC0000C94D50E0E94CC0E85ED91E10E944E231D
:101DD0000E94E00E0C94DE0E0E94D60E0C94D50EDE
:101DE0000E94F5110C94D8030E9401250E948B11CA
:101DF0000E94FD130E9434130E94F00E0E947C1B6F
:101E00000E94021A0E9411140C94DA0E8F929F9273
:101E1000AF92BF92CF92DF92EF92FF920F931F93F8
:101E2000CF93DF93CDB7DEB72A970FB6F894DEBF16
:101E30000FBECDBF0E945813982E81110E94B90E7B
:101E40008EE8A82E82E0B82E00E010E0802E802FD1
:101E50000E941912D82EF501C1905F01C826B1F475
:101E60000F5F1F4F0A30110589F78FEF89838A832F
:101E70001B820E940A258160782F9D838C83498173
:101E80005A816B818D810E94F4032FC08091A00242
:101E900081FD0E941F12E12CFF24F3948C2D8F21D1
:101EA000F1F00E94D30E882399F0EE828F82DF201A
:101EB00081E009F480E088870E940A258160782FFC
:101EC0009A8789874E815F8168858A850E94F4039D
:101ED000F801E257FD4F8081F826F08206C0E394B6
:101EE000FF0CF6E0EF12DACFBBCF81E0911001C01A
:101EF00080E02A960FB6F894DEBF0FBECDBFDF910B
:101F0000CF911F910F91FF90EF90DF90CF90BF90F6
:101F1000AF909F908F9008950E94E31381110C94CD
:101F2000741E08950E94060F0E948C0F0E943A1A98
:101F30000C94E903CF93DF930E94B410EC01811558
:101F400022E59207E8F5811531E5930708F0B6C060
:101F5000883E910528F5803E910508F0E9C0883A51
:101F6000910570F4853A910508F07AC081309105A9
:101F700009F473C008F4D9C0049708F0D9C0D5C0DB
:101F80008F3B910508F0D1C0C85AD0E0CC0FDD1FBF
:101F9000C857DE4F0990D881C02DCE019464C9C0C6
:101FA000811540E5940708F069C0811550E4950754
:101FB00008F060C09A9581159F4108F4B9C0B5C07A
:101FC000811536E5930728F5811545E5940708F056
:101FD00092C0811554E5950708F087C0AC014370A5
:101FE0005527282F26952695C115D34508F06CC096
:101FF00081E090E002C0880F991F4A95E2F740E225
:10200000249F90011124EC01C22BD32BCE019C689C
:1020100090C081152AE5920780F4811539E5930770
:1020200008F072C0811548E5940708F47EC0D82FE7
:10203000CC27CE01806F906A7CC09056811590426B
:1020400008F073C08D2F8F710E944811DD27D06278
:102050008F71AE01582BCA016CC081E090E069C05D
:10206000C55AD0E0CA54DE4F8881C82FD0E0CE01D7
:1020700090645FC0DF70CE01906A5BC074E096959B
:1020800087957A95E1F7282F23703C2F337081E0F4
:1020900090E002C0880F991F3A95E2F79C68AC0166
:1020A000522B9A019C2F9F709695969550E2959F82
:1020B000E0011124C9018C2B9D2B3BC0D82FCC27CC
:1020C000CE01816F906A35C081E090E002C0880F38
:1020D000991F4A95E2F750E2259F90011124EC01E7
:1020E000C22BD32BCE019A6824C0D82FCC27CE0187
:1020F000846F906A1EC00E9448118F7190E0D82FA3
:10210000CC27CE01906215C08F700E94481194E0D8
:10211000D695C7959A95E1F7CF70D0E0DC2FCC2704
:10212000D0699E01282BC90104C080E090E001C065
:10213000CE01DF91CF9108952CE3829FC00111243D
:10214000FC0126E0729FE00DF11D1124E60FF11D48
:10215000EE0FFF1FE852FF4F8591949108950E9462
:102160009C100E949A0F08958238910569F1B0F48D
:102170008133910509F46DC048F48932910509F461
:1021800063C08A32910509F469C0089585339105C9
:1021900009F455C089339105B9F00895833E91053E
:1021A00069F138F4803E9105B1F0823E910509F164
:1021B0000895863E9105A9F1873E9105B9F1843EC7
:1021C000910509F064C023C02091850320FD4FC014
:1021D00021FD4DC008958091850380FD44C080910C
:1021E000860380FF44C08091850384FD42C083EE56
:1021F0004DC08091850382FF38C0F5CF8091850363
:1022000082FD33C08091860380FD31C0ECCF809188
:10221000860381FF32C08091850384FD2AC087EE4A
:1022200035C08091850383FF26C0F5CF809185035B
:1022300083FD21C08091860381FD1FC0ECCF80917A
:10224000850385FD1CC01DC08091850385FD19C0D7
:1022500016C08091850386FD16C017C08091850346
:1022600086FD13C010C089E311C082EE0FC080EE5E
:102270000DC080E00BC086EE09C084EE07C089E285
:1022800005C085E303C08AE201C081E390E00895C0
:102290009091850392FF0DC0282F2871283019F4E2
:1022A000877F846006C0282F2471243011F48B7F2F
:1022B000886093FF0DC0282F2871283119F4877E7C
:1022C000846106C0282F2471243111F48B7E88612B
:1022D0002091860320FF0DC0382F3871383019F453
:1022E000877F816006C0382F3171313011F48E7FC5
:1022F000886021FF0DC0282F2871283119F4877EAE
:10230000816106C0282F2171213111F48E7E8861F0
:1023100094FD877E0895109281031092820310929B
:102320008303109284030895CF92DF92EF92FF927D
:102330006B017C010E94E31381110EC00E941625DF
:10234000C61AD70AE80AF90AC0928103D09282031A
:10235000E0928303F0928403FF90EF90DF90CF90A0
:1023600008950F931F930E94E313882321F01F9178
:102370000F910C9416250E9416250091810310914F
:1023800082032091830330918403600F711F821FA9
:10239000931F1F910F9108950E94E31381110C94D4
:1023A0000A250E94B111CB01089580E008950C9494
:1023B000040E0E9458138FE39CE90197F1F700C0C7
:1023C00000000E9458130E94FB13811102C084E098
:1023D00001C080E00E94191281FF04C00E94D71141
:1023E0000C94732508950C94D9110E940A0E811142
:1023F00002C00E94B20E0E94150E8093A0020E949D
:102400001D0E90938603809385030E94F3110E9412
:10241000190E682F70E080E090E00E94D70760916D
:10242000F8017091F9018091FA019091FB010C94EF
:102430000F08E82FF0E0EE56FC4F808108950895D4
:1024400080EA8A95F1F7089500C008950C9420124F
:1024500008950C9428120C9429120C9428120C94B0
:102460002D120C942812FF920F931F93CF93DF939A
:1024700000D000D01F92CDB7DEB70E94E313609169
:102480009C038823E9F185E0F82E8E010F5F1F4F32
:10249000F8018F2D11928A95E9F7862F90E0B80107
:1024A0008E569C4F0E941F14882389F080918703C9
:1024B00090E045E050E0B8018E569C4F0E94802C81
:1024C00021E02093A102892B61F410E016C08091D5
:1024D000A1028823D1F3F8011192FA94E9F710923E
:1024E000A102A0918703B0E0AE56BC4F85E0F80191
:1024F00001900D928A95E1F711E00E945A030DC0F8
:1025000070E06E567C4F8091870390E08E569C4F12
:102510000E94A9140E94311210E0812F0F900F9099
:102520000F900F900F90DF91CF911F910F91FF901F
:102530000895F894E82FE295EF70F0E031A1282F8C
:102540002F7081E090E001C0880F2A95EAF7982F5C
:102550009095932391A392A1892B82A378940895B7
:102560000F931F93CF93DF93CFEBD1E089918F3FF0
:1025700011F00E94991281E0C43CD807B9F7C9EB69
:10258000D1E00FEB11E089918F3F11F00E94991279
:102590000C171D07C1F7DF91CF911F910F9108957F
:1025A000CF92DF92EF92FF920F931F93CF93DF931F
:1025B0008C01C62FD0E0CE0181549E4F7C01FC01DE
:1025C00090819F3F09F447C0D62EF894E92FE295F9
:1025D000EF70F0E081A19F7021E030E001C0220F98
:1025E0009A95EAF7822B81A382A12095282322A322
:1025F00078940E942412E9EBF1E04FEB51E031E0D6
:10260000C12C21912F3F89F0A22FA295AF70B0E08D
:1026100090968C9190E02F7002C0959587952A95A1
:10262000E2F780FD02C0832F01C080E0C82A330F8B
:102630004E175F0731F7F70180818F3F11F00E943D
:10264000991261E0C11001C060E08D2D0E94261238
:10265000C00FD11FC882DF91CF911F910F91FF90C2
:10266000EF90DF90CF900895809122018091220118
:10267000811102C095E001C090E090939C0385E039
:10268000891B809387030E94B0128AE0E2E9F3E09D
:10269000DF01982F1D929A95E9F7E8E8F3E0DF0152
:1026A0001D928A95E9F785E00E94AC130C945803BB
:1026B000EF92FF920F931F93CF93DF93CDB7DEB7C7
:1026C0002A970FB6F894DEBF0FBECDBF8E010F5F05
:1026D0001F4F8AE0F80111928A95E9F7F12C6F2DCE
:1026E000C8010E94D012F394F5E0FF12F8CF4AE03F
:1026F00050E0B80188E893E00E94802C7C0121E042
:10270000892B09F420E0E114F10441F08AE0F8019A
:10271000A8E8B3E001900D928A95E1F760919C03DF
:1027200070E06E567C4F45E088E893E00E94AD1360
:10273000EF2819F40E94331202C081E090E02A963B
:102740000FB6F894DEBF0FBECDBFDF91CF911F91C2
:102750000F91FF90EF9008950895FF920F931F93AC
:10276000CF93DF938C01F62ED72FC42F222349F06D
:1027700081E08093A4020E940A259093A302809393
:10278000A2028091A4028823C1F08091A2029091BC
:10279000A3020E942225059780F0EF2DFD2FD8017E
:1027A0004C2F50E0CD01801B910B841795071CF432
:1027B0008D918193F7CF1092A402DF91CF911F9159
:1027C0000F91FF9008958091A70281110DC00E9482
:1027D0004C2C811102C082E001C081E08093A702ED
:1027E000823011F40E94472C81E09091A702913031
:1027F00009F080E008950C94E3130E94FB1380938A
:102800002201809122016BE0882311F080E001C059
:102810008BE00E9425170E94E31381110C9457143A
:1028200008950E94E313811102C00C945914089575
:1028300081E09091A8029A3008F080E008950F930B
:102840001F93CF93DF93EC018B018091A8028A3014
:1028500038F4B801CE010E94A71481111DC00AC02E
:102860008091A5029091A6020E942225843F91406A
:1028700080F715C08091A8028F3F19F08F5F809379
:10288000A8028091A8028A3060F00E940A259093E5
:10289000A6028093A50203C01092A80202C080E0A5
:1028A00001C081E0DF91CF911F910F9108950C94A9
:1028B000E7210C94EA21DF92EF92FF920F931F938E
:1028C000CF93DF937901C82F880FDD0B4115510598
:1028D000A9F0FE0193E0EE0FFF1F9A95E1F7ED5D81
:1028E000FE4F8181928187559D4F208130E04217B4
:1028F000530708F49A01A9010E948D2CCE010E9471
:10290000D322D82E8823D1F001151105B9F083E028
:10291000CC0FDD1F8A95E1F7FE01ED5DFE4F43818F
:1029200050E00417150708F4A801CD5DDE4F6C8157
:102930007D8167557D4FC7010E948D2C8D2DDF91C4
:10294000CF911F910F91FF90EF90DF9008950C941D
:102950000E160C9432160F931F93CF93DF9300D073
:1029600000D0CDB7DEB76091C8027091C9028091E6
:10297000CA029091CB020E9431256436710581050F
:10298000910528F10E94B111DC01CB010296A11D35
:10299000B11D89839A83AB83BC8300E010E020E003
:1029A00030E044E050E0BE016F5F7F4F82E00E9464
:1029B0005B14182F882361F00E9416256093C802CB
:1029C0007093C9028093CA029093CB0201C011E0B8
:1029D000812F0F900F900F900F90DF91CF911F914B
:1029E0000F910895AF92BF92CF92DF92EF92FF9234
:1029F0000F931F93CF93DF937C015B016A010E94C9
:102A00001814811103C001E010E002C00AE010E0D8
:102A1000C1E0D0E0F894B501C701F60109957894BA
:102A2000811115C021960C171D0794F0CC9F9001C1
:102A3000CD9F300D300D112480E090E045E34A95A4
:102A4000F1F70000019682179307C1F7E3CF81E009
:102A5000DF91CF911F910F91FF90EF90DF90CF907A
:102A6000BF90AF9008950F931F93CF93DF93CDB78F
:102A7000DEB728970FB6F894DEBF0FBECDBFCE01EC
:102A800001960E94D31818856091CC027091CD02F6
:102A90008091CE029091CF020E943125643671055B
:102AA0008105910510F41123D9F000E010E020E039
:102AB00030E048E050E0BE016F5F7F4F83E00E944E
:102AC0005B14882359F00E9416256093CC02709302
:102AD000CD028093CE029093CF0202C080E003C06B
:102AE0000E94D01881E028960FB6F894DEBF0FBE82
:102AF000CDBFDF91CF911F910F910895AF92BF92FB
:102B0000CF92DF92EF92FF920F931F93CF93DF93B9
:102B100000D000D000D0CDB7DEB77B01C090C4019B
:102B2000D090C50101E010E09E012A5F3F4F40E0D8
:102B300050E060E070E080E00E945B14182F882372
:102B400009F43EC056018FEFA81AB80A6091C4027A
:102B50007091C5028091C6029091C7020E943125F2
:102B6000643671058105910518F105E010E09E01BC
:102B70002F5F3F4F40E050E060E070E081E00E9456
:102B80005B14182F65E070E0C5010E947D1B91E089
:102B90002E81281390E0192339F10E9416256093A5
:102BA000C4027093C5028093C6029093C70211C0FD
:102BB00065E070E0C5010E947D1B9E818913D5CF21
:102BC00085E0F6013196DE01119601900D928A950D
:102BD000E1F7112349F085E0FE013196AFEBB2E059
:102BE00001900D928A95E1F785E0EFEBF2E0D701D5
:102BF00001900D928A95E1F7812F26960FB6F894F1
:102C0000DEBF0FBECDBFDF91CF911F910F91FF901F
:102C1000EF90DF90CF90BF90AF9008950F931F93E8
:102C2000CF93DF93EC018B014EE755E10E94F21444
:102C3000882391F04BEA54E1B801CE010E94F214CE
:102C4000882351F043E355E1B801CE01DF91CF91E4
:102C50001F910F910C94F21480E0DF91CF911F919E
:102C60000F9108950F931F93CF93DF93F894C09122
:102C7000C401D091C501CE01019625E0FB01DC0124
:102C800001900D922A95E1F765E070E00E947D1BAE
:102C900088837894F8946E817F81888599850091E6
:102CA000BB021091BC022091BD023091BE026017A0
:102CB00071078207930751F06093BB027093BC02C7
:102CC0008093BD029093BE020E9494117894F89470
:102CD0008989882331F060E0CE010A960E94CD19DF
:102CE000198A7894DF91CF911F910F9108950E94D6
:102CF0000D270E94F40E0C9419270E941D270E9494
:102D0000920F0C9437270E94A8240E94F4260E9458
:102D1000E20E0E9477160E947D160E94EC0EFBCFF9
:102D2000EF92FF920F931F93CF93DF938B01682F46
:102D300011110AC0442329F0E82FF0E0ED52FD4FB5
:102D40006491762F862F75C0212F30E0E82FF0E0B8
:102D5000442321F0ED52FD4FE491F0E046E0049F62
:102D6000C0011124CFEFD0E0BE010E94592C4BEAE4
:102D70004603C001479F900D1124800F911D800FC5
:102D8000911D982F990F890FAE01421B530B4E9F37
:102D9000D0014F9FB00D5E9FB00D11249B2F189F47
:102DA000A0011124452F55278E01041B150B0E9FE2
:102DB000A0010F9F500D1E9F500D11247E01E81A97
:102DC000F108E29E8001E39E100DF29E100D112489
:102DD000212F3327C21BD30BCE9F9001CF9F300DE5
:102DE000DE9F300D112462307105A9F048F46115A1
:102DF000710569F061307105C9F48B2F752F0DC015
:102E00006430710581F058F06630710579F47E2FD9
:102E10008B2F932F0DC0832F7B2F9E2F09C08E2FBA
:102E20007B2F952F05C08E2F732F02C07E2F852FED
:102E3000692FDF91CF911F910F91FF90EF9008952F
:102E400041E00E94901608950895E3E4F1E0808344
:102E5000618308950E9420170895CF93DF93762F02
:102E6000E901682F842F0E942A17798368838A8357
:102E7000DF91CF91089580919D03282F269530E012
:102E80002115310519F48170826005C025303105A6
:102E900024F08170886080939D03089588E090E01D
:102EA0000C949E2CCF92DF92EF92FF926B017C01EB
:102EB0000E943B17B701A60188E090E0FF90EF90D9
:102EC000DF90CF900C94BC2CEDE9F3E083E080839D
:102ED00011828FEF828383831482ACEDB2E012966D
:102EE0008C911297836012968C936081718182819C
:102EF00093810C94521780919D0380FF02C08695A8
:102F0000089580E008959091A103933018F49F5F95
:102F10009093A103882351F060919D0370919E03CB
:102F200080919F039091A0030C945217089581E023
:102F30000C9483179091A103992319F091509093C9
:102F4000A103882351F060919D0370919E038091AD
:102F50009F039091A0030C945217089581E00C9464
:102F60009A1770E00C94511B6091440180919D036D
:102F700080FF0AC08091430123E0829FC001112499
:102F80008E559C4F0C94B11780914501909146014C
:102F9000891780F7E82FF0E09F01220F331FE20F1F
:102FA000F31FEE55FC4F1182108212828F5FF0CF1B
:102FB00090919D0390FF16C090914501209146018C
:102FC000921770F4E92FF0E0DF01AA0FBB1FEA0FA0
:102FD000FB1FEE55FC4F8183608342839F5FF0CFE0
:102FE0000C94B4170895CF93DF9300D01F92CDB700
:102FF000DEB790919D0390FF0AC09E012F5F3F4F67
:103000000E942D174B8169818A810E94D8170F90E9
:103010000F900F90DF91CF910895CF93DF93EC0144
:10302000EDE9F3E0438162818C810E94F3178C818A
:103030008F5F8C83DF91CF910895EF92FF920F9372
:103040001F93CF93DF9300D01F92CDB7DEB7182F19
:10305000F62E042FE22E80919D0380FF3EC0E82FC4
:10306000E695F0E0EA53FE4F90819093DC028E7F6C
:10307000823061F49E012F5F3F4F812F0E942D17F8
:103080004B8169818A810E94D81704C0923011F463
:1030900010919E0380919E03181308C080919F0396
:1030A000F81204C08091A003081729F08091DE0275
:1030B00082608093DE0210939E03F0929F03009340
:1030C000A003EE2051F060919D0370919E038091CA
:1030D0009F039091A0030E9452170F900F900F90A2
:1030E000DF91CF911F910F91FF90EF900895EDE93F
:1030F000F3E09181282F4381628188E0890F0C944D
:103100001D1881E00C947718EDE9F3E09181282FE8
:103110004381628188EF890F0C941D1881E00C9423
:103120008418EDE9F3E0628121E1620F08F46FEFAA
:10313000282F438181810C941D1881E00C949118F3
:10314000EDE9F3E0628121E1621B08F460E0282FE1
:10315000438181810C941D1881E00C94A018EDE945
:10316000F3E0438121E1420F08F44FEF282F628101
:1031700081810C941D1881E00C94AF18EDE9F3E007
:10318000438121E1421B08F440E0282F62818181C4
:103190000C941D1881E00C94BE1820E00C941D18AE
:1031A0001092DE02089525E0EDE9F3E0DC010190E4
:1031B0000D922A95E1F72091DC023091DD024091D9
:1031C000DE02FC01258336834783089560919D03C9
:1031D000669570E041E050E088E491E00E94732C35
:1031E000892B19F481E08093DD020E94CC11909329
:1031F000D4028093D3028091DE0284608093DE0249
:103200000895ECEDF2E0118282818460828308955A
:1032100090919D0390FF3AC09170811102C092601D
:1032200006C0853010F0986002C0880F982B9093EC
:103230009D038091DE0281608093DE02662351F05F
:1032400060919D0370919E0380919F039091A003D4
:103250000E94521760919D03669570E041E050E036
:1032600088E491E00E94732C892B19F00E940119C7
:1032700002C00E94E61881E08093D6024091A0032C
:1032800060919F0380919E030C94CD180895682F40
:1032900090919D03969581E0890F853008F081E03B
:1032A0000C94081981E00C944719682F90919D03A4
:1032B00096958FEF890F09F484E00C94081981E04A
:1032C0000C94551961E00C940819EDE9F3E0808144
:1032D0008160808386950C94621960E00C940819D3
:1032E000EDE9F3E080818160808386950C946D190F
:1032F0001092DA028091D90281110E9470190C9407
:10330000E618EDE9F3E080818E7F80836081718132
:10331000828193810E9452170E940119ECEDF2E024
:103320008281816082832FEF80E792E0215080408C
:103330009040E1F700C000000C94B41780919D0309
:1033400080FD0C9481190C946519EDE9F3E08081FE
:103350008E7F80830E940119ECEDF2E08281816012
:1033600082832FEF80E792E0215080409040E1F788
:1033700000C000000C94B4170E9401198091DA0279
:1033800081110AC081E08093DA0280919D038170EF
:103390008093D9020C94A51908951F93CF93DF93BE
:1033A000EC01162F8F8180FF0FC0888180FF0AC03B
:1033B00080919D03816080939D03888186950E9402
:1033C000081902C00E94A5198F8181FF06C0212F14
:1033D0004B816A8189810E941D188F8182FF08C0FC
:1033E0008E81882319F00E94E61802C00E940119FC
:1033F0008F8183FF03C081E08093D602DF91CF915C
:103400001F9108958091DB02811133C00E940A0E42
:10341000811104C00E94B20E0E9464170E944E17D0
:1034200060939D0370939E0380939F039093A003EA
:103430008091DE0283608093DE026E7F61F40E94E1
:1034400064170E944E1760939D0370939E038093B0
:103450009F039093A0030E943B170E940119809143
:103460009D0380FF03C086950E946D1981E08093C3
:10347000DB020895EF92FF920F931F93CF93DF9398
:103480008091DD02882309F466C08091DC02E0911E
:103490009D03E695E81BE093D502823049F4F0E005
:1034A000E053FD4FE491CE2FD0E00DE018E104C0D1
:1034B000C0EDD7E004E217E18091D602882361F0E5
:1034C0001092D6020E94CC119093D4028093D30222
:1034D0001092D8021092D7020E94CC11E091D30230
:1034E000F091D4029C012E1B3F0B2F3F3F4798F5D4
:1034F0002091D2022223B1F01092D2022091D00268
:103500003091D102821B930B8F3F9F4758F4205D6F
:103510003A483093D1022093D0028091DE02886035
:103520008093DE02E090D702F090D802CE0FDF1F2A
:10353000D093D402C093D30283ED92E0F8010995B1
:103540008091D7029091D802892B29F4EF2819F0A5
:1035500081E08093D202DF91CF911F910F91FF9074
:10356000EF900895882311F0FA0101C0FB0109943E
:103570000E947B17823030F00E947B17843010F459
:103580000C94521982E00C9462191F93CF93DF932D
:10359000FB011281111180C0EC010E94210D827289
:1035A000CB3CFCE5DF0709F46AC000F5C63CECE55E
:1035B000DE0709F44BC048F4C43C9CE5D907D1F1BF
:1035C000F0F5C33CDC4599F130C0C83C9CE5D90717
:1035D00009F446C008F43FC0C93CFCE5DF0709F424
:1035E00044C0CA3CDC4509F445C01FC0CF3CECE5F3
:1035F000DE0709F451C060F4CD3C9CE5D90709F41D
:1036000043C008F046C04EEA57E167E977E11BC0C6
:10361000C73DFCE5DF0730F4C13DDC45E8F50E941D
:10362000B81A3AC0CE35DD45B9F111E035C00E9477
:103630009E1932C04FE559E162E579E104C042E5E7
:1036400059E16FE579E10E94B21A26C04EE858E1CF
:1036500061E878E1F8CF41E858E16EE878E1F3CF2E
:103660004CEA58E16DE978E1EECF4DE958E16CEABA
:1036700078E1E9CF4AEC58E16BEB78E1E4CF4BEB32
:1036800058E16AEC78E1DFCF47E957E16EEA77E18C
:10369000DACF81E00E946219812FDF91CF911F91D3
:1036A0000895539A2BB1277F3BB138604FB7F894F8
:1036B000FC01CB01880F991F680F791F6E0F7F1FC8
:1036C000E617F70789F0819198E03BB9000000C048
:1036D00087FF2BB9880F000000C000C000C02BB9C5
:1036E00000C09A9591F7ECCF4FBF8FE594E001971A
:1036F000F1F700C0000008950895FC01680F791FDC
:103700008FEF91E3E617F70771F02191822728E008
:1037100030E087FF03C0880F892701C0880F215040
:103720003109B9F7EFCF0895CF93DF93EC01FB0197
:103730008281882309F43CC1C430FDE5DF0760F4D1
:10374000CB3F9CE5D90788F49E0122503C452431AB
:10375000310508F02EC109C0C236EDE5DE0729F0BB
:10376000C63AFDE5DF0709F024C10E941D0E9093C3
:10377000860380938503C1318CE5D80709F4C6C060
:1037800008F042C0C930ECE5DE0709F49BC000F543
:10379000C5308CE5D80709F485C078F4C330ECE572
:1037A000DE0709F478C008F07AC0C230DC4509F0C1
:1037B000F5C0809185038160EFC0C7309CE5D907D3
:1037C00009F478C008F07AC0809185038061E4C074
:1037D000CD30FCE5DF0709F487C058F4CB309CE519
:1037E000D90709F479C008F07BC08091850388600F
:1037F0006FC0CF30FCE5DF0709F480C008F082C05D
:1038000080918503877FC8C0CE3F9CE5D90709F426
:1038100071C000F5C531FCE5DF0709F485C068F427
:10382000C3319CE5D90709F475C008F095C00E9422
:103830007507809185038F77AFC0CC3FFCE5DF072C
:10384000A9F108F054C0CB3FDC4509F0A7C0809136
:10385000860340C0C230EDE5DE0709F489C058F4A4
:10386000C1158DE5D80709F45AC008F069C08091E8
:10387000860382602FC0C236EDE5DE0709F47CC006
:10388000C63AFDE5DF0709F481C0C330DD4509F024
:1038900085C080E06EC08091850382607DC080918C
:1038A000850316C080918503886076C08091860369
:1038B00082604FC08091850380626EC080918503D5
:1038C00080646AC00E94750780918503806864C027
:1038D000846062C081603DC0809185038E7F5CC042
:1038E000809185038D7F58C08091850316C080919B
:1038F000860318C0809186038D7F2BC0809185033D
:103900008F7E4AC0809185038F7D46C0809185035C
:103910008F7B42C080918503877F8B7F3DC08091E4
:1039200086038D7F8E7F15C08091850382FB2227C1
:1039300020F991E0922790FB82F990FB83F92CC04B
:1039400080918603982F909591708E7F892B90FBA4
:1039500081F98093860322C00E94750780918503B8
:1039600087FB222720F991E0922790FB87F914C06A
:1039700081E00E94B40E12C08091850384FB22274F
:1039800020F991E0922790FB84F906C0809185038D
:10399000982F909590FB80F9809385038091850303
:1039A000909186030E942E0E0E94750780E001C050
:1039B00081E0DF91CF9108950F931F93CF93DF9311
:1039C00080914A03882309F459C0C091DF021CE0AA
:1039D00080914A03C81708F04DC001E00C0F009316
:1039E000DF02D0E01C9FF0011D9FF00D1124E65175
:1039F000FD4F9081818123813481232B31F08F3FD2
:103A000031F481E09F3F19F403C081E001C080E000
:103A100080FD2EC01C9FD0011D9FB00D1124A6510A
:103A2000BD4F16968D919C911797892B61F418962E
:103A30008D919C9119978F3F2FEF920721F061E0B4
:103A40000E949B020AC0208131814281538164819E
:103A50007581868197810E945B0C1C9FF0011D9FE0
:103A6000F00D1124E651FD4F148213820E94410D86
:103A7000C02FAECF10924A031092DF02DF91CF9198
:103A80001F910F91089510924C0310924B032091B7
:103A90001C0130911D01E0E0F1E080E090E0821730
:103AA000930741F04581411102C0148216820196AC
:103AB0003796F5CF0895BC014091E8028091E90264
:103AC000942F981729F1292F30E0F901EE0FFF1FED
:103AD000E052FD4F0190F081E02DE617F70799F4D1
:103AE00087E0869FF001879FF00D1124E050FF4F83
:103AF00081E0848394130CC02F5F3F4F23703327E2
:103B00002093E80208952F5F3F4F922F9370D9CFF3
:103B100008957F928F929F92AF92BF92CF92DF9241
:103B2000EF92FF920F931F93CF93DF93EB012C81C2
:103B3000211169C070904A03AAEEB2E020E030E0A3
:103B4000812C61E070E0271508F04EC01A96AD9008
:103B5000BC901B97C880D9804FEF5FEF912CE92C68
:103B6000F12CF701EE0FFF1FEC0DFD1D05911491D7
:103B7000A016B10609F4A701012B11F09394EFCF21
:103B80004F3FEFEF5E0761F1FB0102C0EE0FFF1F39
:103B90004A95E2F78E2AAB0102C0440F551F9A9452
:103BA000E2F741505109E82DF0E04E175F07A1F40C
:103BB0004A815B816CE0629FF001639FF00D1124EC
:103BC000E651FD4F578346832EEF20832183918753
:103BD000808721E02D8308C014961C921E921397B3
:103BE0002F5F3F4F1C96AFCFDF91CF911F910F9169
:103BF000FF90EF90DF90CF90BF90AF909F908F900D
:103C00007F900C945B1DDF91CF911F910F91FF90DE
:103C1000EF90DF90CF90BF90AF909F908F907F906C
:103C200008951F93CF93DF93C091E80217E080912E
:103C3000E902C817A1F0D0E0FE01EE0FFF1FE0522D
:103C4000FD4F80819181189FB001199F700D112443
:103C500060507F4F0E94891D2196C370E8CF0E945B
:103C6000DC1CDF91CF911F910C94431DFF920F93A9
:103C70001F93CF93DF93DC010C911196FC90119769
:103C800080E090E020E0E02FFF2DE20FF11DE20F39
:103C9000F11D4591549141155105B1F0FB01108181
:103CA000318190E0E12FF32FE90FF11DE90FF11DB4
:103CB000C591D491209731F04C175D0709F481E04C
:103CC0009F5FF0CF2F5FDFCF882321F0921728F07E
:103CD000CD0104C080E090E001C0CB01DF91CF9125
:103CE0001F910F91FF90089580914901882341F120
:103CF00080914D0390914E03009711F10E9422256F
:103D000020914B0330914C0328173907C8F4909148
:103D1000E8028091E902981759F00E94111E109252
:103D20004C0310924B0310924E0310924D030895D2
:103D30000E94DC1C10924E0310924D030C94431D04
:103D4000089510924E0310924D03109249018091F4
:103D5000E9028093E8020E94431D0C94DC1C8091D0
:103D6000490181110C94A11E81E0809349010895BD
:103D70002F923F924F925F926F927F928F929F927B
:103D8000AF92BF92CF92DF92EF92FF920F931F9369
:103D9000CF93DF93CDB7DEB72B970FB6F894DEBF86
:103DA0000FBECDBF4C016B01883F2CE5920741F45B
:103DB000FB0112811123B1F081E0809349019AC186
:103DC000893FFCE59F0739F4FB011281112351F073
:103DD0000E94A11E8FC18A3F9C4521F4FB011281E4
:103DE00011110EC000E011E0A12CB12C1B8666243D
:103DF0006394712C9E012F5F3F4F3A87298735C00E
:103E00000E94AF1E77C1FFEFEF16FF0609F429C12C
:103E1000F801648161114CC020914901822F8170A9
:103E2000F6013280F80135812681332009F4BAC0C9
:103E3000882309F4B7C0332309F43DC0930102C0BD
:103E4000220F331F9A95E2F721503109F80186813C
:103E500090E02817390709F444C0FB85F329FB8754
:103E60002FEFA21AB20A095F1F4F80911C01909197
:103E70001D01A816B90608F0F6C0F801408151816D
:103E80006FEF8FEF90E0E92EF12CF701EE0FFF1F9F
:103E9000E40FF51F259134918216930611F0E62E5A
:103EA000F82E232B09F4AFCF9F5F6E2D8F2DEBCF14
:103EB00020E030E0B3CFA30101C0440FEA94EAF759
:103EC000242B268320914B0330914C032233310560
:103ED00008F0B4CF22E330E030934C0320934B033F
:103EE000ADCF80914D0390914E03009741F00E9419
:103EF0002225C39720F021E0F8012483AECF209043
:103F0000E80280E090E02091E9022216A9F1E22C7B
:103F1000F12CF701EE0FFF1FE052FD4F20813181A0
:103F200047E0429FC001439F900D1124FC01E050E7
:103F3000FF4F2F01B801CF010E94361E0097A9F054
:103F400021E0FC0124838017910709F486CF20919A
:103F5000E80222120AC04816590639F497012F5F69
:103F60003F4F237033272093E80297012F5F3F4F85
:103F7000422F4370242EC7CF8017910709F46DCFCD
:103F8000E22CF12CF701EE0FFF1FE052FD4FB18242
:103F9000A0828FEFE81AF80A93E0E922FF24E0926A
:103FA000E9025BCF311114C0A30102C0440F551FB9
:103FB0009A95E2F74150510930E04217530709F052
:103FC00043C0662309F441C0C5010E945B1D3CC08B
:103FD000822F90E09C0121503109282339230E2C97
:103FE00002C0959587950A94E2F7232B59F580FF37
:103FF00029C0F80182819381892BE1F0E985FA8556
:1040000028E011922A95E9F73EEF39833A830E941E
:104010000A258160582F9D838C83F80182819381CA
:104020008F83988729813A814B816D817E810E949F
:104030005B0C04C060E0C5010E949B02F801158280
:1040400081E003C0817001C080E0930101C0220FB4
:10405000EA94EAF72095F801968129232683382EE1
:10406000FCCE312CFACEF6018281882379F1FB85D2
:10407000FF2361F10E940A2590934E0380934D0324
:1040800080914A03883098F591E0980F90934A0305
:1040900098E0F601DE01119601900D929A95E1F7F4
:1040A0002CE0829FC001112486519D4F28E0FE0123
:1040B0003196DC0101900D922A95E1F72FEF3FEF49
:1040C000FC01318720879386828611C09091E80297
:1040D0008091E902981719F00E94111E08C00E94F1
:1040E000DC1C10924E0310924D030E94431D11E000
:1040F000FB851F27812F2B960FB6F894DEBF0FBECE
:10410000CDBFDF91CF911F910F91FF90EF90DF9086
:10411000CF90BF90AF909F908F907F906F905F9067
:104120004F903F902F900895CF93DF9386319C4519
:1041300041F5EB010E94210D982F8A8120912001E9
:1041400030912101882379F09A7A81E009F480E0A6
:1041500080934F03911102C069E201C065E3C90178
:104160000E9447240AC080914F03811102C069E276
:1041700001C065E3C9010E9452240E94630D80E0E2
:1041800001C081E0DF91CF9108950F931F93CF93EA
:10419000DF93C42FD22FFC0182818823C9F0409382
:1041A00052030E940A25909351038093500380E2AA
:1041B0008C0F883008F057C0C77081E001C0880FAD
:1041C000CA95EAF7DF91CF911F910F910C94E0040B
:1041D00080915203481330C0809150039091510355
:1041E0000E9422258F3A910538F510E21D0FCD1758
:1041F000B9F080E28C0F883040F4C77081E001C0D4
:10420000880FCA95EAF70E94E704183028F581E084
:104210009D2F977001C0880F9A95EAF70E94E004DD
:10422000802F0E94D7041830F0F4D77081E001C0CD
:10423000880FDA95EAF70AC080E28C0F883098F48C
:10424000C77081E001C0880FCA95EAF7DF91CF916E
:104250001F910F910C94E704802FDF91CF911F9154
:104260000F910C94D704DF91CF911F910F91089576
:104270000F939C01CB01243F4CE5340731F188F4C6
:10428000293DFCE53F07D9F02A3D4CE5340779F19B
:10429000283D3C45A9F506E221EE41EE68ED7CE5BE
:1042A0002BC0263FFCE53F07E1F0A8F0273F3C4547
:1042B00039F507E225EE46EE67EF7CE51DC007E223
:1042C00025EE45EE69ED7CE517C006E221EE40EEF5
:1042D00064EF7CE511C007E225EE44EE65EF7CE576
:1042E0000BC006E221EE42EE66EF7CE505C008E277
:1042F00021E045EE6AED7CE50E94C52080E008C023
:10430000FC018281882319F01092520301C081E0E0
:104310000F9108958EE14A9B02C08150E1F74A9BBC
:10432000FECF08955A9880E28A95F1F75A9A089537
:10433000FC012AE02A95F1F728E090E080E031E0E6
:1043400040E14A95F1F7880F4A9B02C081609327AC
:1043500000C0000040E14A95F1F7215089F720E1C3
:104360002A95F1F729B100C0000030E13A95F1F744
:1043700022FB222720F992272081920F9083089513
:10438000EF92FF920F931F93CF93DF931F92CDB7BE
:10439000DEB719828C017C01E60EF11C0E151F059B
:1043A00051F00E948A21CE0101960E949821F801C5
:1043B00081938F01F3CF81E09981911180E00F907B
:1043C000DF91CF911F910F91FF90EF900895529A36
:1043D0005A9A089552985A9AEA9AE9E6F0E080814A
:1043E0008F7C80830895615091E001C0990F6A9598
:1043F000EAF720E031E0992361F0492F482319F0D2
:104400005A9A232701C05A9840E24A95F1F79695A7
:10441000F2CF222311F05A9A01C05A9880E28A956D
:10442000F1F75A980895FF920F931F93CF93DF935C
:10443000EC018C01060F111DC017D10741F0F99056
:104440000E94922168E08F2D0E94F321F5CFDF9129
:10445000CF911F910F91FF9008951F920F920FB669
:104460000F9211240F931F932F933F934F935F93BA
:104470006F937F938F939F93AF93BF93EF93FF932C
:10448000CF93DF931F92CDB7DEB719820E948A21A6
:10449000CE0101960E949821082F06950695069553
:1044A000902F96959570202F2570920F292F2370AD
:1044B00096959695920F877089135FC089818111B7
:1044C0005CC0053008F059C080E18A95F1F75A9A2E
:1044D000529A82E08A95F1F700C05A9888E0089FC6
:1044E00080011124D801AD5DBE4F1696ED91FC916F
:1044F00017973097A9F06091C4017091C501149687
:104500002D913C911597260F371F11968D919C91F7
:104510001297680F791F13964C9113978C910995F8
:10452000F801ED5DFE4F6381662351F08091C40177
:104530009091C50124813581820F931F0E9413221F
:104540000E94922180E18A95F1F75A9852985A9ADE
:1045500080E18A95F1F7F801ED5DFE4F60816623F9
:1045600051F08091C4019091C50121813281820F67
:10457000931F0E94C0210E948A210F90DF91CF914A
:10458000FF91EF91BF91AF919F918F917F916F912B
:104590005F914F913F912F911F910F910F900FBEFF
:1045A0000F901F9018950F931F93CF93DF93853033
:1045B00091050CF06DC0EC01F894529A5A9885E080
:1045C0008A95F1F700009C2F969595702C2F2570F9
:1045D000920F892F83709695969523E0CC0FDD1F5F
:1045E0002A95E1F7980F8E01092B0E94922184E011
:1045F0008A95F1F700C068E0802F0E94F32180E1E6
:104600008A95F1F752985A9A4A9902C000C0FCCF95
:1046100087E090E04A9B08C0019721F4529A5A9A89
:10462000789436C000C0F6CFFE01ED5DFE4F638189
:10463000662381F08091C4019091C5012481358168
:10464000820F931F0E94C021811104C0529A5A9A6E
:1046500078941FC00E948A2180E28A95F1F75A98C7
:10466000529A80E18A95F1F7CD5DDE4F688166232D
:1046700051F08091C4019091C50129813A81820F46
:10468000931F0E9413220E949221789481E001C01E
:1046900080E0DF91CF911F910F9108959093CD010C
:1046A0008093CC0108959093590380935803089503
:1046B0000E94E313811103C0809153030895E09198
:1046C0005803F0915903309721F00190F081E02DCB
:1046D000099480E00895E0915803F09159033097D0
:1046E00099F020915601222359F02091850327FF4C
:1046F00007C0DC012C9111962C93119726E02C9386
:104700000280F381E02D09940895209156033091A1
:1047100057032817390771F0909357038093560376
:10472000E0915803F0915903309721F00680F7810A
:10473000E02D0994089520915403309155032817D2
:10474000390771F09093550380935403E091580317
:10475000F0915903309721F00084F185E02D099400
:104760000895FC01329680915601882331F08091A2
:10477000850387FF02C09EE101C096E080E0915072
:1047800028F021912223D9F38F5FF9CF0895662372
:1047900051F1209156012223E9F02091850327FF52
:1047A00019C0462F4695469546954E31E0F4677000
:1047B00021E030E002C0220F331F6A95E2F7FC01CE
:1047C000E40FF11D828190E02823392381E0232B1F
:1047D00069F409C0FC01329608962191621729F00C
:1047E000E817F907D1F780E0089581E008959C016A
:1047F000FC0132969FEF80E04191461789F09F3F80
:1048000019F4411101C0982F8F5F8630A9F79F3F9F
:1048100039F0F901E90FF11D97FDFA9562830895CA
:1048200008959C012A5F3F4FFC014281461301C05D
:104830001282019682179307B9F70895262F2695BD
:10484000269526952E3168F4FC01E20FF11D677064
:1048500021E030E001C0220F6A95EAF78281282B1F
:1048600022830895262F2695269526952E3170F4BD
:10487000FC01E20FF11D677021E030E001C0220F62
:104880006A95EAF720958281282322830895209152
:104890005601222329F02091850327FD0C941E2424
:1048A0000C94F72320915601222329F020918503AF
:1048B00027FD0C9432240C94112420915601FC0104
:1048C0003296222331F08091850387FF02C08EE16A
:1048D00001C086E0DF011D928A95E9F708950895E9
:1048E0000C946F2483E080935A030C9470248111FC
:1048F00002C081E001C082E080935A030C947024CE
:104900000C94772481E080935A030C9470240C94C7
:10491000822408950C9489240C948A240C9489246C
:104920000C9489240C948924CF930E9490240E9493
:1049300058130E948E24C0E08C2F0E9419128111FE
:1049400004C0CF5FCA30C1F701C081E0CF910895A4
:1049500008951F920F920FB60F9211248F939F9379
:10496000AF93BF9380915B03811113C08091E403E7
:104970009091E503A091E603B091E7034196A11D54
:10498000B11D8093E4039093E503A093E603B093F5
:10499000E703BF91AF919F918F910F900FBE0F9042
:1049A0001F9018958091EC03843031F10E94C5036B
:1049B00010925B0320E488E190E00FB6F894A8958C
:1049C000809360000FBE2093600083B7817F846076
:1049D00083BF83B7816083BF7894889583B78E7FC8
:1049E00083BF0FB6F894A89580916000886180938A
:1049F0006000109260000FBE08950E9475070C942D
:104A0000CB0382E084BD93E095BD9AEF97BD809380
:104A10006E0008952FB7F8948091E4039091E50318
:104A2000A091E603B091E7032FBF08952FB7F89444
:104A30006091E4037091E5038091E6039091E703B0
:104A40002FBF08959C014FB7F8948091E403909193
:104A5000E503A091E603B091E7034FBF821B930BE0
:104A60000895CF92DF92EF92FF922FB7F894C09003
:104A7000E403D090E503E090E603F090E7032FBF56
:104A8000A7019601261B370B480B590BCA01B90128
:104A9000FF90EF90DF90CF90089578941F920F923F
:104AA0000FB60F9211248F939F93AF93BF93809172
:104AB000E4039091E503A091E603B091E70301962A
:104AC000A11DB11D8093E4039093E503A093E60339
:104AD000B093E703BF91AF919F918F910F900FBE5D
:104AE0000F901F90189587E797E7909301088093A0
:104AF00000089AE088E10FB6F894A89580936000CA
:104B00000FBE90936000FFCF80917F0308950895BA
:104B1000CF93DF9320915601222339F02091850312
:104B200027FF03C060E222E002C068E021E020939A
:104B3000E9002FEF3091E800215035FD06C035ED3A
:104B40003A95F1F700002111F5CF2091E80025FFFB
:104B50001DC0EC0180915601811105C040E050E07C
:104B600068E070E003C070E040E050E0CE010E94D9
:104B7000A9278091E8008E778093E80080E2FE010B
:104B8000AFE5B3E001900D928A95E1F7DF91CF9107
:104B9000089580935C0370935E0360935D0380913E
:104BA000EC03843001F582E08093E9008FEF90916F
:104BB000E800815095FD06C095ED9A95F1F700004B
:104BC0008111F5CF8091E80085FF0DC040E050E0F5
:104BD00063E070E08CE593E00E94A9278091E800F3
:104BE0008E778093E8000895BC0184E00C94C92579
:104BF000BC0183E00C94C92508958091EB038111D9
:104C000009C00E943A290E9497298091E20084609D
:104C10008093E20008951092EB0308950C9487248A
:104C20006091E80381E0611101C080E00C9472247E
:104C30009091EC0381E0943009F080E06091E8030A
:104C40000C94772442E061EC81E00E94B32842E2B8
:104C500061EC82E00E94B3289091EC0381E09430F3
:104C600009F080E06091E8030C9480248091EE03C9
:104C7000833009F461C030F4813071F0823009F47E
:104C80009AC008958A3009F486C08B3009F46CC04C
:104C9000893009F0A8C020C08091ED03813A09F065
:104CA000A2C08091E800877F8093E8008091F103A3
:104CB0009091F203892B21F460E28FE593E003C029
:104CC00060E080E090E070E00E94F4278091E800CE
:104CD0008B778093E80008958091ED03813209F08D
:104CE00082C08091F1039091F203029708F07BC09B
:104CF0008091E800877F8093E8008091E80082FD42
:104D000005C08091EC038111F8CF6DC02091F300B4
:104D10008091F20090E0922B029731F48091F100A3
:104D2000813011F0863021F48091F10080937F036F
:104D30008091E8008B7753C08091ED03813A09F0B0
:104D400052C08091F1039091F203892B09F04BC07E
:104D50008091E800877F8093E8008091E80080FFE1
:104D6000FCCF8091560136C08091ED038132D9F598
:104D70008091F1039091F203892BA9F58091E800CD
:104D8000877F8093E8000E94E8288091EF0380935A
:104D900056010C9475078091ED03813221F58091C5
:104DA000E800877F8093E8000E94E8288091F00364
:104DB0008093800308958091ED03813AA1F480915E
:104DC000E800877F8093E8008091E80080FFFCCFB7
:104DD000809180038093F1008091E8008E7780932A
:104DE000E8000C94E828089584B7877F84BF0FB645
:104DF000F894A8958091600088618093600010927B
:104E000060000FBE90E080E80FB6F89480936100D8
:104E1000909361000FBE0C9482240E943A290E9454
:104E20009729E2EEF0E080818460808378940C948E
:104E30002C2C8AE491E00C9453238091EC03853070
:104E4000A9F48091EC03853079F40E94D2248091FA
:104E5000EA038823B1F30E949424882391F30E94EB
:104E600093270E947507EDCF0C94FD2408950895B3
:104E70000C943A27292F332723303105C9F060F4E9
:104E80002130310581F02230310509F044C08BE337
:104E900090E02DEF33E043C021323105E1F02232C2
:104EA000310549F138C082E190E028E334E037C0B1
:104EB00099278130910549F028F0029761F5E3EDDB
:104EC000F3E005C0E9EFF3E002C0E1EEF3E0849126
:104ED00090E09F0124C06115710541F061307105BA
:104EE000D1F489E090E028E234E019C089E090E054
:104EF0002FE034E014C06115710541F06130710597
:104F000051F48DE690E02AE434E009C080E490E0BA
:104F100027EB34E004C080E090E020E030E0FA01CC
:104F200031832083089580E189BD82E189BD09B480
:104F300000FEFDCF8091D8008F7D8093D8008091B6
:104F4000E00082608093E0008091E00081FDFCCF72
:104F50000895CF92DF92EF92FF920F931F93CF931A
:104F6000DF93EC018B017A010E940729811133C084
:104F7000E114F10439F0F70180819181081B190BCC
:104F8000C80FD91FC12CD12C0115110519F1809121
:104F9000E80085FD16C08091E8008E778093E800D8
:104FA000E114F10449F0F70180819181C80ED91E06
:104FB000D182C08285E00FC00E940729882321F397
:104FC0000AC089918093F10001501109FFEFCF1AB7
:104FD000DF0ADACF80E0DF91CF911F910F91FF9030
:104FE000EF90DF90CF9008952091F3033091F40378
:104FF0002617370748F06115710539F42091E8004C
:105000002E772093E80001C0B901FC0120E0611572
:10501000710579F18091EC038823F1F18530F1F18C
:105020008091E80083FD3CC08091E80082FD2EC0A5
:105030008091E80080FFEBCF2091F3008091F20097
:1050400090E0922B6115710551F08830910538F48C
:1050500021912093F100615071090196F3CF21E075
:10506000089709F020E08091E8008E778093E800AF
:10507000CECF2111CFCF0AC08091EC03882361F0FD
:10508000853061F08091E80083FD0AC08091E800DE
:1050900082FFF2CF80E0089582E0089583E00895D2
:1050A00081E008952091F3033091F4032617370728
:1050B00048F06115710539F42091E8002E772093AE
:1050C000E80001C0B901FC0120E06115710591F112
:1050D0008091EC03882309F440C0853009F43FC077
:1050E0008091E80083FD3DC08091E80082FD2FC0E3
:1050F0008091E80080FFE9CF2091F3008091F200D9
:1051000090E0922B6115710559F08830910540F4BB
:1051100024912093F1003196615071090196F2CFEC
:1051200021E0089709F020E08091E8008E778093D5
:10513000E800CBCF2111CCCF0AC08091EC038823AB
:1051400061F0853061F08091E80083FD0AC08091B4
:10515000E80082FFF2CF80E0089582E0089583E0C6
:10516000089581E00895982F973068F59093E900AD
:10517000981739F07091EC002091ED005091F000FB
:1051800003C0242F762F50E021FD02C09F5FECCF9B
:105190003091EB003E7F3093EB003091ED003D7F8E
:1051A0003093ED003091EB0031603093EB00709361
:1051B000EC002093ED005093F0002091EE0027FDCD
:1051C000E5CF80E008958F708093E90081E0089535
:1051D0008091ED0387FF11C08091E80082FD05C03A
:1051E0008091EC038111F8CF11C08091E8008B779A
:1051F0000BC08091EC03882349F08091E80080FF88
:10520000F8CF8091E8008E778093E8000895209190
:10521000E4003091E50095E64091EC00842F817028
:1052200040FF23C08091E80080FD1DC08091EC0309
:10523000882399F0853099F08091EB0085FD11C0AD
:105240004091E4005091E5002417350729F391506F
:1052500011F09A01E1CF84E0089582E0089583E09F
:10526000089581E0089580E008954091E80042FFAC
:10527000DDCF08950E94A8290E94B029E0EEF0E059
:10528000808181608083E8EDF0E080818F7780838A
:1052900019BCA7EDB0E08C918E7F8C9380818F7EBE
:1052A00080831092EB0308950F931F93CF93DF93A6
:1052B0000E94A8290E94B029C8EDD0E088818F778C
:1052C000888388818068888388818F7D888319BCE2
:1052D0001092EC031092E8031092EA031092E90393
:1052E00000EE10E0F80180818B7F808388818160EF
:1052F000888342E060E080E00E94B328E1EEF0E0C5
:1053000080818E7F8083E2EEF0E080818160808307
:10531000808188608083F80180818E7F808388818E
:1053200080618883DF91CF911F910F910895E8EDFF
:10533000F0E080818F7E8083E7EDF0E08081816006
:10534000808384E082BF81E08093EB030C94542936
:10535000E8EDF0E080818E7F80831092E200089576
:105360001092DA001092E10008951F920F920FB68A
:105370000F9211242F933F934F935F936F937F93DB
:105380008F939F93AF93BF93EF93FF938091E1002F
:1053900082FF0BC08091E20082FF07C08091E10094
:1053A0008B7F8093E1000E942B2C8091DA0080FF9C
:1053B0001FC08091D80080FF1BC08091DA008E7FD3
:1053C0008093DA008091D90080FF0DC080E189BD13
:1053D00082E189BD09B400FEFDCF81E08093EC033A
:1053E0000E94FD2505C019BC1092EC030E940B26FB
:1053F0008091E10080FF19C08091E20080FF15C01C
:105400008091E2008E7F8093E2008091E2008061D3
:105410008093E2008091D80080628093D80019BC0C
:1054200085E08093EC030E9410268091E10084FFC8
:1054300030C08091E20084FF2CC080E189BD82E110
:1054400089BD09B400FEFDCF8091D8008F7D809387
:10545000D8008091E1008F7E8093E1008091E2008E
:105460008F7E8093E2008091E20081608093E20071
:105470008091E803882311F084E007C08091E30065
:1054800087FD02C081E001C083E08093EC030E94AD
:1054900018268091E10083FF29C08091E20083FFFC
:1054A00025C08091E100877F8093E10082E08093B6
:1054B000EC031092E8038091E1008E7F8093E1007D
:1054C0008091E2008E7F8093E2008091E200806113
:1054D0008093E20042E060E080E00E94B328809187
:1054E000F00088608093F0000E940E26FF91EF91FB
:1054F000BF91AF919F918F917F916F915F914F91EC
:105500003F912F910F900FBE0F901F9018951F92F3
:105510000F920FB60F9211242F933F934F935F93E7
:105520006F937F938F939F93AF93BF93CF93DF93AB
:10553000EF93FF93C091E900CF708091EC00D82FDA
:10554000D17080FDD0E81092E9008091F000877F53
:105550008093F00078940E94CB2A1092E900809109
:10556000F00088608093F000CD2BCF70C093E900ED
:10557000FF91EF91DF91CF91BF91AF919F918F916B
:105580007F916F915F914F913F912F910F900FBE3F
:105590000F901F9018951F93CF93DF93CDB7DEB771
:1055A000AA970FB6F894DEBF0FBECDBFEDEEF3E0C5
:1055B0008091F100819323E0E53FF207C9F70E9453
:1055C00036268091E80083FF2EC18091ED039091F3
:1055D000EE03492F50E04A30510508F024C1FA018A
:1055E000EE59FF4F0C946D2C803821F0823809F071
:1055F0001AC108C08091E9039091EA03992389F0C8
:1056000082600FC08091F1038F70873008F00BC16A
:105610008093E9008091EB0085FB882780F9109248
:10562000E9009091E800977F9093E8008093F10063
:105630001092F100D1C0282F2D7F09F0F4C08823EB
:1056400019F0823061F0EFC08091EF03813009F0F2
:10565000EAC0933009F080E08093EA032EC0809185
:10566000EF0381112AC08091F1038F702FEF280F73
:10567000263008F0D8C08093E9002091EB0020FF8D
:105680001CC0933021F48091EB00806214C0909193
:10569000EB0090619093EB0021E030E0A90102C0A3
:1056A000440F551F8A95E2F74093EA001092EA00F2
:1056B0008091EB0088608093EB001092E90080916C
:1056C000E800877F8093E8000E94E828ACC0811141
:1056D000AAC01091EF031F778091E3008078812B9F
:1056E0008093E3008091E800877F8093E8000E9428
:1056F000E8288091E80080FFFCCF8091E30080687B
:105700008093E300111102C082E001C083E0809326
:10571000EC0389C08058823008F085C08091EF0387
:105720009091F0038C3D53E0950779F583E08A83EF
:105730008AE289834FB7F894DE01139620E03EE0B9
:1057400051E2E32FF0E050935700E49120FF03C0B3
:10575000E295EF703F5FEF708E2F90E0EA3010F02F
:10576000C79601C0C0968D939D932F5F243149F752
:105770004FBF8091E800877F8093E8006AE270E085
:10578000CE0101960E94F42716C06091F10370913A
:10579000F203AE014F5F5F4F0E943827BC01892B97
:1057A00009F441C09091E800977F9093E8008981C7
:1057B0009A810E9452288091E8008B778093E800BC
:1057C00032C0803881F58091E800877F8093E800BF
:1057D0008091E8038093F1008091E8008E7772CF8A
:1057E000811121C08091EF039091F00399270297D6
:1057F000D4F48091E800877F8093E8008091EF03E4
:105800008093E8030E94E8288091E803811106C094
:105810008091E30087FD02C081E001C084E08093B5
:10582000EC030E9422268091E80083FF0AC0809149
:10583000E800877F8093E8008091EB00806280938E
:10584000EB00AA960FB6F894DEBF0FBECDBFDF9176
:10585000CF911F9108950895CF938091EC038823F1
:10586000A1F0C091E900CF709091EC00892F817078
:1058700090FD80E8C82B1092E9008091E80083FD3C
:105880000E94CB2ACF70C093E900CF9108950E9467
:105890003A291092EC030895E8EDF0E080818061F0
:1058A00080838AE18A95F1F700C08091D9008170E8
:1058B0000895AA1BBB1B51E107C0AA1FBB1FA61757
:1058C000B70710F0A61BB70B881F991F5A95A9F7A9
:1058D00080959095BC01CD010895EE0FFF1F0590B6
:1058E000F491E02D0994FC014150504030F00190BA
:1058F0000616D1F73197CF01089588279927089583
:10590000FB01DC0104C08D910190801921F441500C
:105910005040C8F7881B990B0895FB01DC0102C0B9
:1059200001900D9241505040D8F70895F999FECF5B
:1059300092BD81BDF89A992780B50895A6E1B0E09F
:1059400044E050E00C94D02CA8E1B0E042E050E0FC
:105950000C94D02C262FF999FECF92BD81BDF89AD8
:10596000019700B4021639F01FBA20BD0FB6F894A3
:10597000FA9AF99A0FBE08950396272F0E94AB2C2E
:105980000E94AA2C252F0E94AB2C242F0C94AB2C08
:105990000196272F0E94AB2C0C94AA2CDC01CB0182
:1059A000FC01F999FECF06C0F2BDE1BDF89A31962F
:1059B00000B40D9241505040B8F70895F894FFCFCD
:1059C000CA021C14000000C4021314000000BE022E
:1059D0001414000000B80216140000000400AF0008
:1059E0006C02010000000100000000000000050141
:1059F0000000000406000000000000080A0000008B
:105A00000000000016001616010184258825FC25DB
:105A1000F825F425872501E200E900EA00B500B683
:105A200000B700CD008301CC008A019201940121CE
:105A300002230224022502260227022A02B300B40E
:105A4000006F007000818283E200E900EA00B50087
:105A5000B600B700CD008301CC008A019201940109
:105A60002102230224022502260227022A02B30071
:105A7000B4006F007000818283F6F73133323666EE
:0C5A800097C63435A902000102020200A2
:00000001FF
